:020000040000fa
:080000000001040000000000f3
:020000040000fa
:10020000af8e20000e9f20000e018800000000002d
:100210000c00070060ce2100010020001f00070035
:10022000000020000000e000020032000000020098
:100230000000000034040200000000000040da006a
:100240000000fe004440a900002620000000e0005d
:100250000300320000002000a00188004440a800f4
:1002600000000600f03fb1000180b100060035003b
:10027000ee03090000000000403fb1000180b10022
:10028000fbff3d001000b000203fb0000200350031
:1002900000800900000000000000060091018800b5
:1002a000800078000000eb0015003700e28040007d
:1002b00032a0b4009101ba00e280400032a0b40044
:1002c0009102ba00e280400032a0b4000002eb00cc
:1002d000472bde00f507b200602ce10004003a0075
:1002e0000059eb008301e900fdff3e0004003700e8
:1002f0006128e100010032000082eb0004000700e9
:100300001101ba000200e000e8ff3a000000060018
:100310003159ba008301e9000c0032002159ba00ba
:100320008301e900080032000400e00003003a0005
:10033000e280400032a0b400f5ff370011d9ba00c6
:100340008301e900faff3a008100e800e180400003
:1003500032a0b400000006006022b80006022000af
:100360000000d0008180d2000482d2008582d200b9
:100370000000a0000202520083825a0003003100f4
:100380000202420083824a000000a1000603e90045
:08039000f3ff3a000000060033
:020000040000fa
:0200000401f009
:04000000ffff0000fe
:020000040000fa
:0200000401f009
:04000800ffff0000f6
:020000040000fa
:0200000401f009
:04000c00fdff0000f4
:020000040000fa
:0200000401f009
:040010007fff00006e
:020000040000fa
:0200000401f009
:04001400ebff0000fe
:020000040000fa
:0200000401f009
:04001800ffff0000e6
:020000040000fa
:0200000401f009
:04001c00ffff0000e2
:020000040000fa
:100008004a0b00004a0b00004a0b00003e0b0000a0
:100018004a0b00004a0b00004a0b00004a0b000084
:10002800dc0700004a0b00004a0b0000ca0a000067
:100038004a0b00004a0b00004e1700004a0b000054
:100048004a0b00005a100000901000004a0b0000f4
:100058004a0b00004a0b00004a0b00004a0b000044
:100068004a0b00004a0b0000761500004a0b0000fe
:100078004a0b00004a0b00004a0b00004a0b000024
:100088004a0b00004a0b00004a0b00004a0b000014
:100098004a0b00004a0b00004a0b00004a0b000004
:1000a8004a0b00004a0b00004a0b00004a0b0000f4
:1000b8004a0b00004a0b00004a0b00004a0b0000e4
:1000c8004a0b00004a0b00004a0b00004a0b0000d4
:1000d8004a0b00004a0b00004a0b00004a0b0000c4
:1000e8004a0b00004a0b00004a0b00004a0b0000b4
:0800f8004a0b00004a0b000056
:020000040000fa
:100108004a0b00004a0b00004a0b00003e0b00009f
:100118004a0b00004a0b00004a0b00004a0b000083
:10012800dc0700004a0b00004a0b0000ca0a000066
:100138004a0b00004a0b00004e1700004a0b000053
:100148004a0b00005a100000901000004a0b0000f3
:100158004a0b00004a0b00004a0b00004a0b000043
:100168004a0b00004a0b0000761500004a0b0000fd
:100178004a0b00004a0b00004a0b00004a0b000023
:100188004a0b00004a0b00004a0b00004a0b000013
:100198004a0b00004a0b00004a0b00004a0b000003
:1001a8004a0b00004a0b00004a0b00004a0b0000f3
:1001b8004a0b00004a0b00004a0b00004a0b0000e3
:1001c8004a0b00004a0b00004a0b00004a0b0000d3
:1001d8004a0b00004a0b00004a0b00004a0b0000c3
:1001e8004a0b00004a0b00004a0b00004a0b0000b3
:0801f8004a0b00004a0b000055
:020000040000fa
:10039800285a0000285a0000285a0000285a00004d
:1003a800285a0000285a0000285a0000285a00003d
:1003b800285a0000285a0000285a0000285a00002d
:1003c800285a0000285a0000285a0000285a00001d
:1003d800285a0000285a0000285a0000285a00000d
:1003e800285a0000285a0000285a0000285a0000fd
:1003f800285a0000285a0000285a0000285a0000ed
:10040800285a0000285a0000285a0000285a0000dc
:10041800285a0000285a0000285a0000285a0000cc
:10042800285a0000285a0000285a0000285a0000bc
:10043800285a0000285a0000285a0000285a0000ac
:10044800285a0000285a0000285a0000285a00009c
:10045800285a0000285a0000285a0000285a00008c
:10046800285a0000285a0000285a0000285a00007c
:10047800285a0000285a0000285a0000285a00006c
:10048800285a0000285a0000285a0000285a00005c
:10049800285a00007a550000c4520000125000008b
:1004a800674d0000c54a00002c4800009f45000029
:1004b8001f430000ae4000004d3e0000fe3b000020
:1004c800c23900009a370000883500008d330000db
:1004d800ab310000e22f0000332e0000a02c0000fa
:1004e8002a2b0000d1290000962800007a27000056
:1004f8007f260000a3250000e82400004f24000008
:10050800d7230000822300004e2300003d23000073
:100518004e23000082230000d72300004f24000050
:10052800e8240000a32500007f2600007a270000a9
:1005380096280000d12900002a2b0000a02c0000da
:10054800332e0000e22f0000ab3100008d33000095
:10055800883500009a370000c2390000fe3b0000d1
:100568004d3e0000ae4000001f4300009f450000c4
:100578002c480000c54a0000674d000012500000da
:10058800c45200007a55000034580000285a000070
:10059800285a0000285a0000285a0000285a00004b
:1005a800285a0000285a0000285a0000285a00003b
:1005b800285a0000285a0000285a0000285a00002b
:1005c800285a0000285a0000285a0000285a00001b
:1005d800285a0000285a0000285a0000285a00000b
:1005e800285a0000285a0000285a0000285a0000fb
:1005f800285a0000285a0000285a0000285a0000eb
:10060800285a0000285a0000285a0000285a0000da
:10061800285a0000285a0000285a0000285a0000ca
:10062800285a0000285a0000285a0000285a0000ba
:10063800285a0000285a0000285a0000285a0000aa
:10064800285a0000285a0000285a0000285a00009a
:10065800285a0000285a0000285a0000285a00008a
:10066800285a0000285a0000285a0000285a00007a
:10067800285a0000285a0000285a0000285a00006a
:10068800285a0000285a0000285a0000285a00005a
:10069800285a0000175700002d5500004753000046
:1006a800665100008b4f0000b74d0000ea4b000078
:1006b800274a00006f480000c2460000214500009c
:1006c8008e43000009420000934000002e3f0000c6
:1006d800da3d0000983c0000683b00004c3a0000fe
:1006e800453900005138000074370000ac3600006e
:1006f800fa35000060350000dc340000703400007a
:100708001c340000df330000bb330000af330000af
:10071800bb330000df3300001c34000070340000dd
:10072800dc34000060350000fa350000ac3600000b
:100738007437000051380000453900004c3a000079
:10074800683b0000983c0000da3d00002e3f0000a6
:1007580093400000094200008e430000214500003c
:10076800c24600006f480000274a0000ea4b00001c
:10077800b74d00008b4f0000665100004753000042
:100788002d5500001757000003590000285a000093
:1007980000000000080000000b000000100000002e
:1007a80017000000200000002d000000400000009d
:1007b8005b00000080000000b500000000010000a0
:1007c8006a01000000020000d402000000040000da
:1007d800a805000000080000500b000000100000f1
:1007e800a116000000200000412d0000004000007c
:1007f80021ff000021ff000021ff000021ff000071
:1008080047fe000095fb0000a6f6000058ef000028
:1008180000e6000037db0000dace000080c10000ef
:1008280073b3000078a4000009940000f58100006b
:10083800fe6e0000685c0000324b00004a3b00007e
:10084800082c00006c1d0000b5100000000000001e
:020000040000fa
:100858000000fa000000eb000080fa00000006002b
:100868000000fa0042c7bf000042b2000004e000e6
:10087800fcff320000382c00911c200077fe070096
:100888000060fe0000c1b300dce8b700010007000b
:10089800feff37000200fa00dcc8bf000080fb0042
:1008a800000f7800000320009e007800808f500021
:1008b8008f003200000320009e007800808f5000d7
:1008c80013003c001e007800f80f50002c00320086
:1008d8009e007800f88f500004003c001e0078004d
:1008e800f00f5000200032003901370000022000cc
:1008f8009e007800808f50004500320040022000a2
:100908009e007800808f5000600032003001370070
:10091800400420009e007800808f5000e1003200e3
:10092800400420009e007800808f500005003c00a5
:10093800000420009e007800808f5000ff003200e5
:1009480023013700000520009e007800808f5000aa
:100958007d003200000f20009e007800808f50003c
:10096800180132001a0137000060fe001a01070062
:10097800cb07070080c1b300dce8b70014013700db
:100988000040eb00d4e8b7001d003700450307001e
:100998000060fe00c9c2bf00614060000004e000c2
:1009a80002003a0010c0b300d7e8b700d7c8bf00ac
:1009b8000004e00007003200c9c2bf0061406000c7
:1009c8000004e000030032000040eb00d7e8b70065
:1009d800320207009eff07000004e0000300320017
:1009e80000cfb300dce8b70005003700d4c8bf006b
:1009f8000004e0000200320000c2b300dce8b700e7
:100a0800dcc8bf00f84f5000e0ff3200f0003700ac
:100a1800803e2000a04488000000eb00b04488001d
:100a2800a044800070448800b0448000804488005e
:100a38000040eb00d4e8b7000e00370019030700a8
:100a48000060fe0082ff07000004e000030032009f
:100a580000cfb300dce8b70006003700714480001f
:100a680080448000808f500002003a0040c2b300ea
:100a7800dce8b700c18d20009140780000c2b300c7
:100a880080cf5000edff3200d10037000000eb00ae
:100a98007044880090448000804488000e0037002d
:100aa8000060fe00ff02070069ff07000004e00085
:100ab8000300320000cfb300dce8b70006003700bf
:100ac8007144800080448000808f500002003a000a
:100ad80000c3b300dce8b700c18d20009140780066
:100ae80040c2b30080cf5000edff3200b80037009d
:100af80040062000b044880000322000a04488004e
:100b08000060fe00e702070051ff07000004e00054
:100b18000300320000cfb300dce8b700ac003700b8
:100b2800d4c2bf00614060000004e000030032004e
:100b380040c4b300dce8b700a500370000c5b30027
:100b4800dce8b700a20037000040eb00d4e8b700ab
:100b58004e0037000060fe00d2020700cac8bf007e
:100b68000004e000030032000040eb00cae8b700d0
:100b780088050700c8c2bf00704060000004e0009c
:100b880002003a0010c0b300d5e8b700d5c8bf00ce
:100b98000004e00009003200c8c2bf0070406000d5
:100ba8000004e000050032000040eb00d5e8b70083
:100bb800110020000000eb0094070700c8c2bf0026
:100bc8000042b2000004e00002003a0010c0b30086
:100bd800d6e8b700d6c8bf000004e000090032001c
:100be800c8c2bf000042b2000004e00005003200a5
:100bf8000040eb00d6e8b7001100200010002000ec
:100c080082070700c9c2bf00614060000004e0001d
:100c180002003a0010c0b300d7e8b700d7c8bf0039
:100c28000004e00007003200c9c2bf006140600054
:100c38000004e000030032000040eb00d7e8b700f2
:100c48009601070002ff07000004e00003003200dd
:100c580000cfb300dce8b7000c003700d4c8bf00f1
:100c68000004e0000300320000c2b300dce8b70073
:100c780006003700d4c2bf00614060000004e000f5
:100c88000200320000c3b300dce8b700c18d2000c9
:100c98009140780000c5b30080cf5000adff32000e
:100ca8004b0037000000eb00604688000040eb0076
:100cb800cbe8b7001b0037000060fe007902070090
:100cc800cac8bf000004e000040032000040eb0086
:100cd800cae8b7002f05070039050700dcfe070042
:100ce8000004e0000300320000cfb300dce8b700e6
:100cf8000c003700d4c2bf00614060000004e0006f
:100d080003003a0000c3b300dce8b7000500370071
:100d180070468000e90f50000200360000c4b3009e
:100d2800dce8b700c18d20009140780040c4b300d2
:100d380080cf5000e0ff320025003700914480004a
:100d480070448000008050008046880015003700fd
:100d58000060fe00530207008d050700bcfe070077
:100d68000004e0000300320000cfb300dce8b70065
:100d78000c003700d4c2bf00614060000004e000ee
:100d880003003a0000c3b300dce8b70005003700f1
:100d9800cac8bf000004e0000200320040c4b3002b
:100da800dce8b700c18d20009140780000c4b30092
:100db80080cf5000e6ff3200050037000060fe00db
:100dc80038020700dcc8bf00f04f4000fbff3200cc
:100dd8000080fa00000006000000fa00cb42a900db
:100de800c502a900f02f2f0000168800f0bf2f00c1
:100df800301688000080eb00901688000080eb0019
:100e0800c0168800f0ff2300f01688008400a900af
:100e18009400a8008200a800a4c0bf007040b300de
:100e2800a4e0b70084c0a90094c0a800710a2000fb
:100e38009140780080cfb30000c060005040b300fc
:100e4800a7e0b7008460a9009460a800510a2000b8
:100e580091407800f0c8b30000c0600001c3b3003f
:100e680001407000a5e0b7008640a9009640a800a0
:100e7800d10a20009140780080cfb30000c0600004
:100e88006040b300ade0b7009520a900810a2000ba
:100e980091407800f0c8b30000c0600001c4b300fe
:100ea80001407000a8e0b7009540a900810a200021
:100eb80091407800f0c8b30000c0600001c4b300de
:100ec80001407000a8e0b70070c622001008880032
:100ed80000032800200888000047200060088800d8
:100ee800000328008008880060802000fb090700b4
:100ef80080842000f9090700500020004011880074
:100f08000000eb00001188000040eb0004e8b70087
:100f18008540a9008520a9009540a8009520a80033
:100f280021e2a80000402000101188000000eb001a
:100f3800301888005002200000188800005f2f0039
:100f48001018880010102000501888000000eb00ce
:100f580060188800101020007018880001e3a800ad
:100f680000ccb300e0e8b7000040eb00e1e8b700d0
:100f78000000eb00104788000000eb0020478800c5
:100f8800008e2000410a070000cab300dee8b7005f
:100f98000040eb00dfe8b70021002000e08d2000d2
:100fa80058090700c7e8b7000080fa0000000600eb
:100fb80000a0fe003600f800849fbe00869fbe0099
:100fc8000400fa00cb42a800000000000000000066
:100fd8000000000000000000000000000000000009
:100fe80000000000000000000000000000000000f9
:100ff80000000000cb42a90080252000010020004d
:1010080096fc07000000eb00000f78000000eb00e2
:10101800904588000000eb00a04588000603a90061
:101028000aa3a8000f0037001e0fe80006c3bf0080
:10103800614060000004e000fcff32009145800040
:10104800001980000080400090458800a14580007c
:101058001019800000804000a04588000603a90000
:101068000aa3a800d00020009e0f1000eeff360053
:1010780006c3bf00614060000004e000fcff3200ce
:10108800914580000019800000804000904588004c
:10109800a14580001019800000804000a04588000c
:1010a800904580004400de0090458800a0458000ff
:1010b8004400de00a0458800a145800090458000de
:1010c8000080500010079800c7c8bf008000fb00d0
:1010d8001e00900001004000100798009e0090003c
:1010e800f0072000808f500003003400f007200034
:1010f80010079800060037009e00900000f82f00a7
:10110800808f500002003d0000f82f001007980063
:1011180090458000f40f500005003e00a045800077
:10112800f40f500002003e000000eb00100798008a
:101138008144800070448000808f5000020032009b
:101148000040eb00c8e8b700c8c8bf000040e8008e
:10115800c8e8b700c8c8bf00ee4f5000020036000c
:10116800f0c0b300c8e8b700c9c8bf008080fb0062
:101178001e00900000417800e4804000208b200091
:101188000080400012409800c9c8bf000040e80035
:10119800c9e8b700c9c8bf006f406000c9e8b70018
:1011a800604680000000e8006046880061468000d4
:1011b80000f02f00808f50000200360000f02f0052
:1011c800604688000000eb0070468800c04680003a
:1011d8000000e800c046880010c0b300cae8b700a5
:1011e8008400a9000080fa004f03be004f02be0031
:1011f8003600f9000080fe00004006000200fa00f8
:10120800f144800090992100808f500003003e0037
:101218000000eb00000f78001d003700f14480004b
:10122800c0cc2400808f500003003e001000200036
:10123800000f780016003700f04480000000e0003e
:101248000300350020002000000f78001000370050
:10125800f144800020332b00808f500003003e00b3
:1012680030002000000f780009003700f1448000aa
:1012780050662e00808f500003003e004000200082
:10128800000f78000200370050002000000f78009f
:101298001e0078000080fa00000006000600fa0030
:1012a800d6ff0700204798002e4090000080fb00e2
:1012b800200798002e009000e20f50002000320016
:1012c8002e009000e20f500007003c002e00900016
:1012d8000000e0000e0032002e009000e10f5000e8
:1012e8000f003200360037002e009000e40f500047
:1012f800330032002e009000e40f5000300035001b
:101308002e009000e50f5000280032002c00370016
:10131800004580004600de00804488002800370031
:10132800004580004600de0090448800924480001a
:1013380011002000e08d200035080700200037004c
:10134800004580004800de00000f7800f00720000c
:101358009e0f1000060036001e00780080407800be
:1013680000c8b30000c04000c7e8b7000900370054
:10137800000820001e0f50000040eb00c7e8b7002f
:10138800c7c8bf00804078001e00780000c0500029
:10139800c7e8b700c7c8bf000001fb002100200054
:1013a800e08d20001a08070005003700004580007e
:1013b8000000e00002003d0010c0b300d4e8b70010
:1013c8000080fa00000006000400fa008bff070006
:1013d800004f78001e80fb00100798001e00900048
:1013e800e20f50001c0032001e009000e20f500077
:1013f80007003c001e0090000000e0000e003200d4
:101408001e009000e10f50000f0032003e00370030
:101418001e009000e40f5000290032001e009000ca
:10142800e40f5000220035001e009000e50f500028
:101438002600320034003700704480004200dd008e
:101448001047880030003700904480004200dd00db
:10145800104788002c003700c7c8bf000004e00010
:101468000b003500c7c8bf000000fb00104788000c
:10147800c7c8bf000000fb000008b0001047880084
:10148800104780004400dd00104788001e00370028
:10149800c7c8bf000000fb000008b0001047880064
:1014a800104780004400dd00104788001600370010
:1014b800904680004200dd00104788001200370087
:1014c8000000eb00104788000f003700c18d200096
:1014d8009140780000c2b30080cf50000500320070
:1014e800c18d20009140780040c2b30080cf5000e9
:1014f80003003a00f0ff2000104788000200370080
:101508000000eb0010478800008e2000ef0807005d
:101518000080fa00000006000400fa0007e2a900b3
:10152800e442a9000040eb00004f780008003700b3
:10153800e842a800400620000100200047fb070001
:10154800e842a900400620000100200043fb0700f4
:101558000040eb002047980040c1b3009e4f1000a8
:1015680002003e0010c0b300204798001e4fe8005c
:101578002e4090000004e000edff3a00e442a8008d
:1015880007e2a8000080fa00000006003600f80014
:10159800809fbe00829fbe00849fbe00869fbe00c3
:1015a8000200fa008460a90087ff070009c2bf0093
:1015b800644060000004e00002003200d6ff07002b
:1015c8000942a900dac8bf000040e800dae8b7001d
:1015d800a18d20009140780070c2b30080cf5000e8
:1015e80014003600e3c2bf008040eb00014f7800d2
:1015f8000004e0000200350010c0b300004f78007e
:101608001e407800c700dd00e3c2bf000074a100df
:1016180001407000e3e2b7000040eb00dae8b700f1
:10162800c04680004200de00904688000000eb00c3
:10163800c0468800704680000000e80070468800b8
:1016480071468000f0ef2f00808f500002003600b6
:1016580000f02f00704688000080fa004f03be009b
:101668004f02be004f01be004f00be003600f90019
:10167800004006000000fa00000000000000000022
:101688000000fe000080fa00004006000000fa009a
:1016980000000000000000000000fe000080fa00ca
:1016a800004006000000fa0004c8bf00e24f5000e6
:1016b800010032000600070004c8bf00e24f5000d6
:1016c80001003a00c40007000080fa00000006008c
:1016d8000400fa00881f78002e0037006080200080
:1016e80031080700204798002e409000ef4f400037
:1016f80028003a00608020002b0807002047980047
:101708002e409000ee4f400022003a0060802000fa
:1017180025080700204798002e409000ed4f400014
:101728001c003a00608020001f08070000e8b7008e
:10173800608020001c08070002e8b70060802000d5
:101748001908070003e8b7006080200016080700a2
:1017580001e8b70060802000130807000080fb0044
:10176800000f78001e0078004804dd00608020002b
:101778000d0807000080fb00000f44001e007800e1
:101788002f0207000004e0000200320020c0b3006e
:1017980004e8b70004c8bf000004e00004003a00f1
:1017a800608020001d080700e84f5000cbff3e0076
:1017b8004f0478000080fa00000006000200fa00da
:1017c8008cc8bf000004e00046003200e1cfb3003f
:1017d80080842000cb070700704480004800de00aa
:1017e8008040780080842000c6070700704480008d
:1017f8008040780080842000c20707008044800071
:101808004800de008040780080842000bd07070083
:10181800804480008040780080842000b907070059
:1018280091458000f00f2000808f500003003600a3
:1018380000c0eb00004f78000200370090458000a0
:10184800004f78009e40780080842000ad07070094
:10185800a1458000f00f2000808f50000300360063
:1018680000c0eb00004f780002003700a045800060
:10187800004f78009e40780080842000a107070070
:10188800b6c8bf0080407800808420009d0707000c
:10189800604680004800de00804078008084200098
:1018a8009807070060468000804078008084200008
:1018b8009407070023c2bf00624060000004e000f4
:1018c80008003a0080842000e00707000004e000d8
:1018d8000400320080842000b30707000080fb006a
:1018e800201188000080fa00000006000600fa00b7
:1018f8002047980031479800220798008cc8bf00fd
:101908000004e00032003a002e019000be40900032
:101918002e409000b4010700000f780011cfb300eb
:10192800808420007707070021cfb300808420003f
:101938007407070041cfb3008084200071070700b7
:10194800ae409000808420006e0707002e009000b3
:101958004800de0080407800808420006907070086
:101968002e009000804078008084200065070700e2
:10197800be40900080842000620707001e007800a7
:101988004800de0080407800808420005d07070062
:101998001e007800804078008084200059070700e6
:1019a80023c2bf00624060000004e00008003a0063
:1019b80080842000a50707000004e000040032002e
:1019c80080842000780707000080fb002011880031
:1019d8000080fa00000006000800fa0002c8bf00f4
:1019e8000080fb00200798002e0090004800dd00d2
:1019f8002007980003c8bf008080fb002e009000dd
:101a080001004000200798002e0090001007980061
:101a180000c8bf000080fb00000f780000c8bf00ae
:101a28000080fb003007980020042000be009000d2
:101a3800808f5000b800320020042000be009000c3
:101a4800808f50001e003c0020032000be00900044
:101a5800808f50004f00320020032000be0090000d
:101a6800808f500009003c0000022000be0090005a
:101a7800808f50003400320000032000be00900028
:101a8800808f500035003200a3003700600320002b
:101a9800be009000808f50008800320000042000b3
:101aa800be009000808f50004f003200400320009d
:101ab800be009000808f50003f0032009600370033
:101ac80000062000be009000808f500065003200a4
:101ad80000062000be009000808f50000d003c00e2
:101ae80040052000be009000808f50004d0032005d
:101af80060052000be009000808f50007600320004
:101b080000052000be009000808f50003c0032008d
:101b18008100370020072000be009000808f500011
:101b280076003200000e2000be009000808f50002a
:101b38007900320000072000be009000808f50001e
:101b4800260032007400370001c8bf000080fb0087
:101b58007a000700100798006f003700c18d200039
:101b68009140780040c4b30080cf50006a00320032
:101b7800c18d20009140780000c4b30080cf500090
:101b880065003200ae009000200020009f0307008f
:101b980061003700c18d20009140780000c5b30076
:101ba80080cf50005c003a00ae009000100020008a
:101bb8009603070058003700c18d20009140780037
:101bc80000c5b30080cf500053003a00ae0090002b
:101bd8000000eb008d0307004f00370010c0b30072
:101be800d4e8b7004c00370001c8bf008080fb0074
:101bf800e08d2000430607001007980046003700d4
:101c080001c8bf000080fb00e4004000208b2000da
:101c180000804000104090000000fb001007980072
:101c28003d003700ae009000e09f2000808f5000fc
:101c380002003600f09f200020079800ae009000b8
:101c4800e0ff2f0000806000200798002e00900021
:101c58005044880050448000900078001107980094
:101c68002d00370001c8bf000004e00003003a005f
:101c78002e009000c7e8b7000a00370001c8bf006f
:101c8800e14f500007003a000040eb00c7e8b700fa
:101c9800c7c8bf00804078002e00900000c05000e8
:101ca800c7e8b700c7c8bf000001fb00210020003b
:101cb800e08d2000d6050700170037002e009000a1
:101cc800904488009244800011002000e08d20009c
:101cd800cf0507001000370001c8bf00e14f5000d2
:101ce80003003a0010c0b3008ce8b7000a003700c0
:101cf8000040eb008ce8b70007003700c18d2000da
:101d08009140780000c4b30080cf500002003a0030
:101d180000f02f0070468800118020009140780064
:101d28001e0078001e019000f0fe07000040eb0046
:101d380004e8b7000080fa00000006000800fa0076
:101d4800100798001e0090006101b8000080eb00a9
:101d58008080eb0002014000838148002207980040
:101d680033079800f0042000010020002e019000a5
:101d7800be019000800f5100818f590097003e00ee
:101d88002e009000be009000006001004f00370058
:101d98005200370091003700900037008f0037005d
:101da8008e0037008d0037008c0037008b0037001d
:101db8008a0037008900370088003700870037001d
:101dc800860037008500370047003700830037005a
:101dd8004800370081003700490037007f0037008e
:101de8004a0037007d0037004b0037007b00370082
:101df8007a0037007900370078003700770037001d
:101e0800760037007500370074003700730037001c
:101e18007200370071003700700037006f0037001c
:101e28006e0037006d0037006c0037006b0037001c
:101e38006a0037006900370068003700670037001c
:101e48006600370065003700360037003800370075
:101e58003a0037003c003700600037005f00370069
:101e68005e0037005d0037005c0037005b0037001c
:101e78005a003700370037004d0037004f00370051
:101e88005600370055003700350037003700370057
:101e9800390037003c0037003f0037004a00370060
:101ea8004c0037004d0037004c0037004b0037001e
:101eb8004a0037004900370048003700470037001c
:101ec800460037004500370036003700dcc8bf0041
:101ed8000080fb00000f780040003700000220005f
:101ee800000f78003d00370071448000010f780032
:101ef8003a00370082448000020f7800370037002c
:101f080093448000030f780034003700a044800019
:101f1800000f780031003700b1448000010f7800cd
:101f28002e00370002198000020f78002b003700be
:101f380013198000030f780028003700d044800070
:101f4800000f780025003700e1448000010f780079
:101f580022003700f2448000020f78001f0037008b
:101f680093458000030f78001c003700a0458000cf
:101f7800000f780019003700b6c8bf000000fb004a
:101f8800000f780015003700c7c8bf000000fb002d
:101f9800000f78001100370061468000010f7800bb
:101fa8000e00370092468000020f78000b003700c1
:101fb80003458000030f78000800370010478000b1
:101fc800000f78000500370071468000010f780087
:101fd8000200370080468000000f78001e0078005d
:101fe8000080fa00000006000600fa00204798006a
:101ff8003147980022079800702d2000000f7800c4
:102008002e4090008080fb003e4090000080fb0046
:10201800008040001e0f40002e0090004800de00a7
:102028001e0f4000ae009000f00f200000806000fe
:102038001e0f40001e0078000080fa000000060015
:102048000600fa0010079800602d2000000f7800a5
:1020580000c8bf008080fb0001c8bf000080fb00f3
:10206800008040001e0f400002c8bf008080fb00b7
:1020780003c8bf000080fb00008040001e0f400026
:102088001e0090009e0f100003003a001000200070
:1020980020079800020037000000eb002007980096
:1020a8002e0090000080fa00000006003600f800bc
:1020b800809fbe00829fbe00849fbe00869fbe0098
:1020c8004400f8004200f8000000fa008520a9004a
:1020d80004003700301180008040780060802000c4
:1020e8008805070022c2bf00614060000004e000cc
:1020f800f8ff3a000080fa004200f9004400f900b5
:102108004f03be004f02be004f01be004f00be008d
:102118003600f900004006003600f800809fbe0037
:10212800829fbe00849fbe00869fbe004400f800c8
:102138004200f8000000fa008540a90004003700ba
:1021480080842000980507000080fb00201188008b
:1021580023c2bf00624060000004e00004003a00af
:1021680080842000ad0507000004e000f4ff3a0079
:102178000080fa004200f9004400f9004f03be0055
:102188004f02be004f01be004f00be003600f900ee
:10219800004006000000fa00cbc8bf000004e000c1
:1021a80003003a0073010700b6e8b70002003700e1
:1021b800fd000700b6e8b7000080fa00000006003e
:1021c8000200fa0070448000000f78006146800029
:1021d800f0072000808f50000200360010c0b300c6
:1021e800cbe8b700cbc8bf000004e00049003a00c4
:1021f800b6c8bf00fe4f5000030034001e00780030
:10220800640f40003f003700b6c8bf00f84f5000c9
:10221800030034001e007800630f400039003700c7
:10222800b6c8bf00f24f5000020034001e8fe8000d
:1022380034003700b6c8bf00e64f50000200340033
:102248001e0fe8002f003700b6c8bf00e64f400059
:102258000600340060468000e30f50002900360075
:1022680010c0b300cbe8b70026003700b6c8bf00df
:10227800f24f4000040034001e00e000210032004c
:102288001e0fe9001f003700b6c8bf00f84f400016
:1022980008003400100020009e0f100002003600d5
:1022a8001e8fe900170037000000eb00000f7800d0
:1022b80014003700b6c8bf00fe4f400009003400c4
:1022c800200020009e0f1000030036001e0078003a
:1022d800630f50000b0037000000eb00000f780080
:1022e80008003700300020009e0f10000300360061
:1022f8001e007800640f5000020037000000eb0059
:10230800000f78009e00780020002000bf01070021
:102318001c00370010c0b300cbe8b7007144800040
:1023280080448000808f500016003a00704480007e
:10233800000f7800b6c8bf00e64f50000800340010
:102348000080eb009e0f10000e0032001e0fe80008
:102358009e00780020002000ac010700090037002b
:10236800b6c8bf00e64f400006003d001e00e00072
:10237800040032001e0fe9009e00780020002000b3
:10238800a20107000dfd07000080fa00000006000a
:102398000a00fa007046800030079800d11f8400b8
:1023a8003e009000808f500003003e006000b8009f
:1023b800008fbe00750037000040eb00004f98000a
:1023c800030037000e4890000040e800004f9800d6
:1023d8000e489000f54f500009003e000e4890004e
:1023e8000080fb0080004000c03c280000804000c6
:1023f800900078003e009000808f5000f1ff36007a
:102408000e4890000080fb000000400001032000ff
:1024180080804000c03c2800008040001001780007
:102428000e4890000080fb000000e800000040001b
:102438000103200080804000c03c2800008040004c
:10244800100078000000510001002000008fbe003d
:102458000e4890000080fb000000e800800040006b
:10246800c03c280000804000900078003e009000aa
:10247800008050006103b8009e00780006007800d4
:10248800000ab8001e0078000780b900050178002e
:10249800000141001e00900000b0b9000001410099
:1024a80082027800048fbe000e4890000080fb0076
:1024b8000000e80080004000c03c28000080400088
:1024c800100178000e4890000080fb00800040005a
:1024d800c03c280000804000100078000000510037
:1024e8006101b8001e00be0099f70700008fbe000a
:1024f8000e4890000080fb000000e800000040004b
:102508000103200080804000c03c2800008040007b
:1025180010007800010020001e0f40005e97480060
:10252800804680006103b9009e00780006007800ac
:10253800000ab8001e0078000780b900050178007d
:10254800000141001e00900000b0b90000014100e8
:1025580082027800048fbe009e0078002107980050
:102568001e00be004008de0001002000008fbe00f3
:102578002e0090000000e00004003d001000200044
:10258800010020001e0f40005e9748009044800024
:102598009e00780081005000200020001b010700e9
:1025a8000080fa00000006000600fa00604680007d
:1025b800e70f500003003600c8c8bf00e74f5000bf
:1025c80003003e000000eb0020079800660037007b
:1025d800c9c8bf00004f78001e4fe9001e407800b0
:1025e8006f4f60001e80fb00e4004000208b20003d
:1025f80000804000104090000000fb001007980089
:102608001e4fe9001e4078006f4f60001e80fb00df
:10261800e4004000208b2000008040001040900023
:102628008000fb001e009000010040001007980089
:102638001e4fe9001e4078006f4f60001e80fb00af
:10264800e4004000208b20000080400010409000f3
:102658008000fb001e009000010040001007980059
:102668001e4fe9001e4078006f4f60001e80fb007f
:10267800e4004000208b20000080400010409000c3
:102688008000fb001e009000010040001007980029
:102698001e4fe9001e4078006f4f60001e80fb004f
:1026a800e4004000208b2000008040001040900093
:1026b8008000fb001e0090000100400010079800f9
:1026c8001e4fe9001e4078006f4f60001e80fb001f
:1026d800e4004000208b2000008040001040900063
:1026e8008000fb001e0090000100400010079800c9
:1026f8001e4fe9001e4078006f4f60001e80fb00ef
:10270800e4004000208b2000008040001040900032
:102718008000fb001e009000010040001007980098
:102728001e4fe9001e4078006f4f60001e80fb00be
:10273800e4004000208b2000008040001040900002
:102748008000fb001e009000010040001007980068
:102758001e0090004380de00100798001e009000c5
:102768000000fb00200798002e0090000080fa006f
:10277800000006000600fa0060468000e10f5000e5
:1027880003003e000000eb00200798001e00370001
:10279800c9c8bf00004f78001e4fe9001e407800ee
:1027a8006f4f60001e80fb00e4004000208b20007b
:1027b80000804000104090000000fb0010079800c7
:1027c8001e4fe9001e4078006f4f60001e80fb001e
:1027d800e4004000208b2000008040001040900062
:1027e8008000fb001e0090000100400010079800c8
:1027f8001e0090000080d100100798001e00900075
:102808000000fb00200798002e0090000080fa00ce
:10281800000006000000fa000040eb00b7e8b7002f
:102828000040eb00b8e8b7000040eb00b9e8b7009b
:102838000040eb00bae8b7000040eb00bbe8b70087
:102848000040eb00bce8b7000040eb00bde8b70073
:102858000040eb00bee8b7000040eb00bfe8b7005f
:102868000040eb00c0e8b7000040eb00c1e8b7004b
:102878000040eb00c2e8b7000040eb00c3e8b70037
:102888000040eb00c4e8b7000040eb00c5e8b70023
:102898000040eb00c6e8b7000080fa000000060020
:1028a8000000fa0000322000a04488004006200002
:1028b800b044880011002000e08d200011030700bb
:1028c8009044880091448000a0448000808f50008c
:1028d80002003900a04480009044880091448000a0
:1028e800b0448000808f500002003e00b044800059
:1028f8009044880090448000804488009044800080
:10290800704488000000eb00104588000040eb0090
:10291800a9e8b7000000eb00504588000000eb0074
:10292800604588000000eb007045880000af250076
:102938001020880000002c00502088001000200083
:102948004020880050172000902088005017200051
:10295800a020880080d72200702088000000eb00ab
:102968008020880000002c00f02088001000200043
:10297800e0208800501720003021880050172000e0
:102988004021880080d72200102188000000eb0039
:102998002021880000002c009021880010002000d1
:1029a8008021880050172000d0218800501720006f
:1029b800e021880080d72200b02188000000eb00c9
:1029c800c021880000002c00302288001000200060
:1029d80020228800501720007022880050172000fd
:1029e8008022880080d72200502288000000eb0057
:1029f80060228800a0002000302088000164a80020
:102a080001e4a8000080fa00000006000800fa00af
:102a1800200798003107980080448000100798002c
:102a28002e009000e20f500003003a003e00900094
:102a3800000f78001d0037002e009000e10f5000b5
:102a48000d003a008080eb003e009000808050002e
:102a58001e009000808f5000040036009e009000f9
:102a68003e009000008f4000100037000080eb000f
:102a7800000f78000d0037002e0090000000e000e5
:102a88000a003a009e0090003e009000808f50009f
:102a9800040039009e0090003e009000008f500016
:102aa800020037000000eb00000f7800a04480000f
:102ab8009e0f500002003e00a0448000000f7800e6
:102ac800b04480009e0f500002003900b0448000de
:102ad800000f78001e007800804488000080fa000b
:102ae80000000600809fbe003400f80000002000af
:102af800a00188004400f8004200f8000800fa002d
:102b08008640a900a9c8bf000040e800a9e8b700ae
:102b1800918a200091407800f0c3b30080cf500024
:102b2800120036000040eb00a9e8b70050458000cd
:102b3800f04488008045800000458800604580009a
:102b4800d044880070458000e04488000000eb0015
:102b5800504588000000eb00604588000000eb004d
:102b6800704588000000eb00804588000ba3a90091
:102b78000fa3a9000ea3a900814580009019800029
:102b8800008040008045880051458000b0198000d1
:102b98000080400050458800614580002019800071
:102ba8000080400060458800714580003019800031
:102bb80000804000704588000ba3a8000fa3a80060
:102bc8000ea3a80098c8bf00e24f5000730032005f
:102bd8000040eb00c8e8b7000000eb003045880073
:102be800a8c8bf000040e800a8e8b700c18d2000d1
:102bf8009140780040c4b30080cf500008003a00ec
:102c0800cbc8bf000004e0000500320040022000ed
:102c180030079800201c2100600888000400370055
:102c280060002000300798000047200060088800f6
:102c3800a8c8bf008080fb003e009000808f500035
:102c48008e0039000040eb00a8e8b70098c8bf0024
:102c5800e14f500004003a00104580000000e900f0
:102c68001045880003003700104580000000e80088
:102c78001045880011458000f007200000806000a2
:102c880010458800104580000002b0002007980019
:102c9800ae009000f0072000008060002007980038
:102ca800104580000004b000100798009e009000b6
:102cb800f007200000806000100798001045800091
:102cc80001062000010f4000f00720001e0f6000e1
:102cd8001045800080004000c01c28000080400093
:102ce80010007800702088001e00900080004000ce
:102cf800c01c2800008040001000780010218800c7
:102d08002e00900080004000c01c28000080400079
:102d180010007800b02188001e0078008000400074
:102d2800c01c280000804000100078005022880055
:102d3800204580000000e8002045880020458000ec
:102d4800ff0f50004d0036000000eb0020458800c2
:102d580098c8bf00e14f500007003a007044800057
:102d6800e10f40000a003200704480000000e800d3
:102d78007044880006003700704480000000e000be
:102d880003003200704480000000e90070448800ad
:102d980020c0b30098e8b7003800370030458000fd
:102da8000000e8003045880031458000f0f9200037
:102db800808f50003100360000fa2000304588002e
:102dc80011458000f0072000008060001045880051
:102dd800104580000002b00020079800ae00900067
:102de800f007200000806000200798001045800050
:102df8000004b000100798009e009000f007200023
:102e0800008060001007980010458000010620002f
:102e1800010f4000f00720001e0f600010458000e1
:102e280080004000c02c280000804000100078007e
:102e3800702088001e00900080004000c02c2800f0
:102e48000080400010007800102188002e009000bb
:102e580080004000c02c280000804000100078004e
:102e6800b02188001e00780080004000c02c280097
:102e78000080400010007800502288000080fa008e
:102e88004200f9004400f9003400f9004f00be0088
:102e980000400600809fbe000000fa0084c0a90020
:102ea80098c8bf00e24f500019003a0081448000e2
:102eb800a0448000808f500002003600a0448000ab
:102ec8008044880081448000b0448000808f500096
:102ed80002003100b04480008044880071448000c2
:102ee80080448000808f5000030036000040eb00d3
:102ef80098e8b700060037007144800080448000dd
:102f0800808f50000200310010c0b30098e8b7006d
:102f18000080fa004f00be00004006001400fa00ce
:102f280040479800310798004207980053079800d7
:102f38006407980075079800060f9800170f980007
:102f48006e009000fe0090004309dd00cd00de0019
:102f5800810071004300dd004e019000de01900009
:102f6800fbf40700008fbe001e0078004047880071
:102f7800404780000000d100404788000e089000bc
:102f88009e0890004309dd00cd00de00810071003d
:102f98004300dd001e1f10001e9718001e00be0013
:102fa8004d09dd004300de0000007100c308de00ab
:102fb800008fbe000080eb008080eb001e0f4000f9
:102fc8005e9748001000200001002000be0f10008e
:102fd800ae8f180003003e002000200001002000f2
:102fe800008fbe00f0ff2f0001002000be0f100070
:102ff800ae8f1800030036002000200001002000da
:10300800008fbe004e4090000004e0000300320034
:103018004e409000e14f500004003a00be0090007e
:10302800311088001e007800201088000080fa0007
:10303800000006000600fa00404798000000eb0078
:10304800000f78004e4090000004e00003003200ba
:103058004e409000e14f500014003a000000eb0091
:10306800100798000d0037001e0090000000e800cf
:1030780010079800414780001e009000810f500003
:103088000600360000a02f00000f780030478000af
:103098000000e800304788000400370009c2bf007c
:1030a8000044b2000004e000efff3a001e00780080
:1030b8000080fa00000006000600fa004047980069
:1030c8000000eb00000f78004e4090000004e00084
:1030d800030032004e409000e14f500015003a00c6
:1030e8000602a8000000eb00100798000d0037004a
:1030f8001e0090000000e80010079800414780007b
:103108001e009000810f50000600360000a02f001e
:10311800000f7800304780000000e8003047880042
:103128000400370006c2bf00614060000004e000f0
:10313800efff3a001e0078000080fa000000060049
:103148000600fa00404798000000eb00000f7800e6
:103158004e4090000004e000030032004e40900012
:10316800e14f500015003a000622a8000000eb00cd
:10317800100798000d0037001e0090000000e800be
:1031880010079800414780001e009000810f5000f2
:103198000600360000a02f00000f7800304780009e
:1031a8000000e800304788000400370006c2bf006e
:1031b800624060000004e000efff3a001e00780063
:1031c8000080fa00000006000600fa004047980058
:1031d800514798000000eb00000f78005e40900017
:1031e8000004e000030032005e409000e14f500010
:1031f80029003a004e4090000080fb001010880023
:103208000000eb00100798000d0037001e0090002a
:103218000000e80010079800414780001e00900059
:10322800810f50000600360000a02f00000f780024
:10323800304780000000e80030478800120037005f
:1032480009c2bf000044b2000004e000efff3200f2
:103258000d0037001e0090000000e80010079800dd
:10326800414780001e009000810f50000600360084
:1032780000a02f00000f7800304780000000e80011
:10328800304788000400370009c2bf000044b2007c
:103298000004e000efff3a001e0078000080fa000a
:1032a800000006000600fa00404798000000eb0006
:1032b800000f78004e4090000004e0000300320048
:1032c8004e409000e14f50002c003a000662a800e2
:1032d8000000eb00100798000d0037001e0090005a
:1032e8000000e80010079800414780001e00900089
:1032f800810f50000600360000a02f00000f780054
:10330800304780000000e80030478800120037008e
:1033180006c2bf00684060000004e000efff3a000a
:103328000d0037001e0090000000e800100798000c
:10333800414780001e009000810f500006003600b3
:1033480000a02f00000f7800304780000000e80040
:10335800304788000400370008c2bf0062406000a0
:103368000004e000efff32001e00e00003003a0016
:1033780001108000f00f2000008f60001e00780010
:103388000080fa00000006000600fa004047980096
:103398000000eb00000f78004e4090000004e000b1
:1033a800030032004e409000e14f500015003a00f3
:1033b8000642a8000000eb00100798000d00370037
:1033c8001e0090000000e8001007980041478000a8
:1033d8001e009000810f50000600360000a02f004c
:1033e800000f7800304780000000e8003047880070
:1033f8000400370006c2bf00644060000004e0001b
:10340800efff3a001e0078000080fa000000060076
:103418000e00fa00400798005107980062079800cc
:10342800de009000f0f32100808f500033003e0052
:103438006e0090004800de00204798006e00900063
:10344800304798005e009000000040003007980068
:103458003e0090004800de00504798003e00900073
:10346800404798004e00900010409000f1fe070081
:10347800000f78004e009000104090000eff0700eb
:103488001e0f70004e009000904090004e0090007b
:10349800104078004cff07001e0f70004e0090008f
:1034a800904090005e40900047ff07001e0f70009c
:1034b8004e009000904090004e40900042ff070060
:1034c8001e0f70004e009000904090003e4090000b
:1034d8003dff07001e0f70004e00900090409000c6
:1034e8002e40900038ff07001e0f70004e0090001d
:1034f80010409000a4ff07001e0f70000080fa0023
:10350800000006000c00fa004007980051079800d8
:10351800de009000f0f32100808f50005e003e0036
:103528005e00900000004000200798002e009000e8
:103538004800de00304798002e0090002047980091
:103548004e00900010409000bafe07003007980027
:103558004e00900010409000d7fe070080007800d1
:103568003e00900001007000300798004e00900067
:10357800904090004e0090001040780012ff070025
:10358800800078003e00900001007000300798002d
:103598004e009000904090003e4090000aff0700c7
:1035a800800078003e00900001007000300798000d
:1035b8004e009000904090002e40900002ff0700bf
:1035c800800078003e0090000100700030079800ed
:1035d8004e00900010409000d9fe0700800078004f
:1035e8003e00900001007000300798004e009000e7
:1035f800904090004e009000104078000004a00019
:10360800f1fe0700800078003e0090000100700085
:10361800300798004e0090001040900021ff0700ee
:10362800104798004e00900010409000c4fe07001c
:10363800800078003e00900001007000300798007c
:103648004e009000904090004e009000104078008e
:103658000004a000dcfe0700800078003e00900017
:1036680001007000300798004e0090001040900054
:103678000cff0700004f78004e00900010409000ab
:1036880041ff0700800078003e00900001007000b4
:1036980030079800040037000040eb0010479800fe
:1036a8000040eb00004f78001e80fb0020079800c8
:1036b8002e0090004800dd00200798001e40900072
:1036c8008080fb002e009000010040002007980039
:1036d8002e0090000080fa00000006000200fa00a8
:1036e800000f78009e0078000040eb0080c0980032
:1036f8009e0078000040eb0090c098000080fa001f
:10370800000006000400fa00000f78002147980026
:103718001e00780000c090008080fb001e0078002a
:103728002e419000827078001e00780000c0900042
:103738000040e800804078001e00780001c0980032
:103748001e00780000c09000f2c3b3008240600001
:103758001e00780001c098001e00780080c090000c
:103768001e00780010c0900080cf50000c003a0076
:103778001e00780010c090000040e80080407800eb
:103788001e00780011c098001e00780010c090003c
:10379800f2c3b300824060001e00780011c0980098
:1037a8000080fa00000006000400fa0010079800e4
:1037b8001e00900090c09000114798001e009000d5
:1037c80080c090001e40900080cf50000e00320054
:1037d8001e4090008080fb001e009000614f780022
:1037e8001e4090000040e800104798001e409000de
:1037f800f043b200104798001e0090009e409000d1
:1038080011c09800020037000040eb00004f78001c
:103818001e80fb000080fa00000006000200fa008b
:10382800000f78001e00780080c090001e0078000d
:1038380010c0900000c050008080fb00f003200002
:10384800008060000080fa00000006000400fa0012
:10385800000f78001e00780080c090001e007800dd
:1038680010c0900080cf500003003a000000eb0029
:103878001007980002003700100020001007980079
:103888001e0090000080fa00000006000200fa0006
:10389800000f78001e00780010409000a60120005c
:1038a80007002000047e2000c51b2000026a2800b3
:1038b8001300200001022b0098fd07001e0078006d
:1038c800020007000080fa00000006000600fa0067
:1038d800200798002e00900010009000004f7800fc
:1038e8002e009000100090004800de00104798005d
:1038f8002e00900010409000cefd070010079800a1
:103908002e00900010409000ebfd0700800078002a
:103918001e00900001007000100798002e00900013
:10392800904090002e0090001040780026fe07007e
:10393800800078001e0090000100700010079800b9
:103948002e009000904090001e4090001efe070040
:10395800800078001e009000010070001007980099
:103968002e009000904090001e40780016fe070040
:10397800800078001e009000010070001007980079
:103988002e009000104090007ffe07008000780015
:103998001e00900001007000100798001e009000a3
:1039a8000000e000050032002e009000200090008a
:1039b8008000e8002e009000210098000080fa00a6
:0439c80000000600f5
:020000040000fa
:1039cc00d20800000a000000020000000000000005
:1039dc00000000000000000000000000dc080000f7
:1039ec000a00000000000000000800008e0000002b
:1039fc00000000008e080000240000000000000001
:103a0c00e6080000020000000200000000000000b8
:103a1c00e80800000200000000000000b2080000ee
:0c3a2c002000000000000000000000006e
:00000001FF
