:020000040000fa
:080000000001040000000000f3
:020000040000fa
:10000800d40b0000d40b0000d40b0000c80b000078
:10001800d40b0000d40b0000d40b0000d40b00005c
:100028006e080000d40b0000d40b00004c0b00003d
:10003800d40b0000d40b0000e0180000d40b000023
:10004800d40b000070110000b4110000d40b0000a4
:10005800d40b0000d40b0000d40b0000d40b00001c
:10006800d40b0000d40b0000d8160000d40b0000fd
:10007800d40b0000d40b0000d40b0000d40b0000fc
:10008800d40b0000d40b0000d40b0000d40b0000ec
:10009800d40b0000d40b0000d40b0000d40b0000dc
:1000a800d40b0000d40b0000d40b0000d40b0000cc
:1000b800d40b0000d40b0000d40b0000d40b0000bc
:1000c800d40b0000d40b0000d40b0000d40b0000ac
:1000d800d40b0000d40b0000d40b0000d40b00009c
:1000e800d40b0000d40b0000d40b0000d40b00008c
:0800f800d40b0000d40b000042
:020000040000fa
:10010800d40b0000d40b0000d40b0000c80b000077
:10011800d40b0000d40b0000d40b0000d40b00005b
:100128006e080000d40b0000d40b00004c0b00003c
:10013800d40b0000d40b0000e0180000d40b000022
:10014800d40b000070110000b4110000d40b0000a3
:10015800d40b0000d40b0000d40b0000d40b00001b
:10016800d40b0000d40b0000d8160000d40b0000fc
:10017800d40b0000d40b0000d40b0000d40b0000fb
:10018800d40b0000d40b0000d40b0000d40b0000eb
:10019800d40b0000d40b0000d40b0000d40b0000db
:1001a800d40b0000d40b0000d40b0000d40b0000cb
:1001b800d40b0000d40b0000d40b0000d40b0000bb
:1001c800d40b0000d40b0000d40b0000d40b0000ab
:1001d800d40b0000d40b0000d40b0000d40b00009b
:1001e800d40b0000d40b0000d40b0000d40b00008b
:0801f800d40b0000d40b000041
:020000040000fa
:10020000cf8e20000e9f20000e018800000000000d
:10021000000020000000e000020032000001200089
:10022000200288000c00070000ef210001002000e0
:1002300011000700000020000000e0000200320072
:100240000000020000000000240402000000000082
:100250000040da000000fe004440a9000026200013
:100260000000e0000300320000002000a001880030
:100270004440a8000000060091018800800078003a
:100280000000eb0015003700e280400032a0b4000f
:100290009101ba00e280400032a0b4009102ba009d
:1002a000e280400032a0b4000002eb00472bde00e9
:1002b000f507b200602ce10004003a000059eb00a1
:1002c0008301e900fdff3e00040037006128e100e2
:1002d000010032000082eb00040007001101ba00a7
:1002e0000200e000e8ff3a00000006003159ba00c1
:1002f0008301e9000c0032002159ba008301e900b2
:10030000080032000400e00003003a00e2804000f0
:1003100032a0b400f5ff370011d9ba008301e9001b
:10032000faff3a008100e800e180400032a0b4000a
:10033000000006006022b800060220000000d00085
:100340008180d2000482d2008582d2000000a00009
:100350000202520083825a0003003100020242006e
:1003600083824a000000a1000603e900f3ff3a007f
:040370000000060083
:020000040000fa
:10037400285a0000285a0000285a0000285a000071
:10038400285a0000285a0000285a0000285a000061
:10039400285a0000285a0000285a0000285a000051
:1003a400285a0000285a0000285a0000285a000041
:1003b400285a0000285a0000285a0000285a000031
:1003c400285a0000285a0000285a0000285a000021
:1003d400285a0000285a0000285a0000285a000011
:1003e400285a0000285a0000285a0000285a000001
:1003f400285a0000285a0000285a0000285a0000f1
:10040400285a0000285a0000285a0000285a0000e0
:10041400285a0000285a0000285a0000285a0000d0
:10042400285a0000285a0000285a0000285a0000c0
:10043400285a0000285a0000285a0000285a0000b0
:10044400285a0000285a0000285a0000285a0000a0
:10045400285a0000285a0000285a0000285a000090
:10046400285a0000285a0000285a0000285a000080
:10047400285a00007a550000c452000012500000af
:10048400674d0000c54a00002c4800009f4500004d
:100494001f430000ae4000004d3e0000fe3b000044
:1004a400c23900009a370000883500008d330000ff
:1004b400ab310000e22f0000332e0000a02c00001e
:1004c4002a2b0000d1290000962800007a2700007a
:1004d4007f260000a3250000e82400004f2400002c
:1004e400d7230000822300004e2300003d23000098
:1004f4004e23000082230000d72300004f24000075
:10050400e8240000a32500007f2600007a270000cd
:1005140096280000d12900002a2b0000a02c0000fe
:10052400332e0000e22f0000ab3100008d330000b9
:10053400883500009a370000c2390000fe3b0000f5
:100544004d3e0000ae4000001f4300009f450000e8
:100554002c480000c54a0000674d000012500000fe
:10056400c45200007a55000034580000285a000094
:10057400285a0000285a0000285a0000285a00006f
:10058400285a0000285a0000285a0000285a00005f
:10059400285a0000285a0000285a0000285a00004f
:1005a400285a0000285a0000285a0000285a00003f
:1005b400285a0000285a0000285a0000285a00002f
:1005c400285a0000285a0000285a0000285a00001f
:1005d400285a0000285a0000285a0000285a00000f
:1005e400285a0000285a0000285a0000285a0000ff
:1005f400285a0000285a0000285a0000285a0000ef
:10060400285a0000285a0000285a0000285a0000de
:10061400285a0000285a0000285a0000285a0000ce
:10062400285a0000285a0000285a0000285a0000be
:10063400285a0000285a0000285a0000285a0000ae
:10064400285a0000285a0000285a0000285a00009e
:10065400285a0000285a0000285a0000285a00008e
:10066400285a0000285a0000285a0000285a00007e
:10067400285a0000175700002d550000475300006a
:10068400665100008b4f0000b74d0000ea4b00009c
:10069400274a00006f480000c246000021450000c0
:1006a4008e43000009420000934000002e3f0000ea
:1006b400da3d0000983c0000683b00004c3a000022
:1006c400453900005138000074370000ac36000092
:1006d400fa35000060350000dc340000703400009e
:1006e4001c340000df330000bb330000af330000d4
:1006f400bb330000df3300001c3400007034000002
:10070400dc34000060350000fa350000ac3600002f
:100714007437000051380000453900004c3a00009d
:10072400683b0000983c0000da3d00002e3f0000ca
:1007340093400000094200008e4300002145000060
:10074400c24600006f480000274a0000ea4b000040
:10075400b74d00008b4f0000665100004753000066
:100764002d5500001757000003590000285a0000b7
:1007740000000000080000000b0000001000000052
:1007840017000000200000002d00000040000000c1
:100794005b00000080000000b500000000010000c4
:1007a4006a01000000020000d402000000040000fe
:1007b400a805000000080000500b00000010000015
:1007c400a116000000200000412d000000400000a0
:1007d40021ff000021ff000021ff000021ff000095
:1007e40047fe000095fb0000a6f6000058ef00004d
:1007f40000e6000037db0000dace000080c1000014
:1008040073b3000078a4000009940000f58100008f
:10081400fe6e0000685c0000324b00004a3b0000a2
:10082400082c00006c1d0000b51000000000000042
:020000040000fa
:100834000000fa000042eb00044078000080fa0057
:10084400000006000000fa0000000000153a8000d5
:100854000402200004826200e00f5200fbff320019
:1008640000382c00911c20006c0d07000060fe0075
:1008740004c1b3000002fd00d2e8b7000002fd008d
:1008840001000700feff37000000fa00248d20005d
:10089400144278000482fb0005032000850f5200f7
:1008a400a200320005032000850f52000e003c0018
:1008b400f80f520025003200f80f520003003c00ec
:1008c400f00f5200190032008d013700050220009c
:1008d400850f52005100320045022000850f52005e
:1008e400740032008601370045042000850f520051
:1008f4002001320045042000850f520004003c0012
:1009040005042000850f52004c0132007c013700a1
:1009140005052000850f5200a1003200050f2000bc
:10092400850f520070013200750137000060fe002f
:10093400750107008b08070084c1b3000002fd00a5
:10094400d2e8b7000002fd006d01370014c0b30007
:100954000002fd00d6e8b7000002fd002a003700bf
:10096400960307000060fe00451680000410200076
:1009740004826200e00f520004003a0014c0b30085
:100984000002fd00e2e8b7000002fd00248e200012
:1009940014427800e04f52000a00320045168000ed
:1009a4000410200004826200e00f520005003200af
:1009b4000042eb000002fd00e2e8b7000002fd0087
:1009c400930207009aff070000427800e04f5200ac
:1009d4000500320004cfb3000002fd00d2e8b700e6
:1009e4000002fd0008003700648d200014427800e6
:1009f400e04f52000400320004c2b3000002fd00c4
:100a0400d2e8b7000002fd00248d200014427800d3
:100a1400f84f5200d2ff32003901370004f42100ac
:100a2400a44488000002eb00b4448800a44480007d
:100a340074448800b4448000844488000042eb007d
:100a44000002fd00d6e8b7000002fd0013003700e5
:100a54005a0307000060fe0075ff0700004278009b
:100a6400e04f52000500320004cfb3000002fd0045
:100a7400d2e8b7000002fd0008003700754480008a
:100a840084448000848f520004003a0044c2b300be
:100a94000002fd00d2e8b7000002fd00258d200011
:100aa4009542780004c2b30084cf5200e8ff3200bc
:100ab400130137000002eb00744488009444800062
:100ac40084448800130037000060fe003b030700e5
:100ad40057ff070000427800e04f52000500320043
:100ae40004cfb3000002fd00d2e8b7000002fd000d
:100af400080037007544800084448000848f5200cd
:100b040004003a0004c3b3000002fd00d2e8b700b9
:100b14000002fd00258d20009542780044c2b300f8
:100b240084cf5200e8ff3200f50037000432200081
:100b3400b444880004c22100a44488000060fe007c
:100b44001e0307003aff070000427800e04f5200fe
:100b54000500320004cfb3000002fd00d2e8b70064
:100b64000002fd00e6003700a41680006102620066
:100b7400e00f52000500320044c4b3000002fd003f
:100b8400d2e8b7000002fd00dd00370004c5b30061
:100b94000002fd00d2e8b7000002fd00d8003700d3
:100ba4000042eb000002fd00d6e8b7000002fd00a1
:100bb4006a0037000060fe0000030700a48c2000d8
:100bc40014427800e04f5200050032000042eb006e
:100bd4000002fd00cae8b7000002fd000d06070090
:100be4004416800070026200e00f520004003a00d4
:100bf40014c0b3000002fd00e0e8b7000002fd00ed
:100c0400048e200014427800e04f52000a003200a3
:100c14004416800070026200e00f520006003200a9
:100c24000042eb0004007800e0e8b700a1002000d7
:100c34000000eb002808070045168000040220008d
:100c440004826200e00f520004003a0014c0b300b2
:100c54000002fd00e1e8b7000002fd00148e200050
:100c640014427800e04f52000b0032004516800019
:100c74000402200004826200e00f520006003200e9
:100c84000042eb0004007800e1e8b700a100200076
:100c940010002000100807004516800004102000f2
:100ca40004826200e00f520004003a0014c0b30052
:100cb4000002fd00e2e8b7000002fd00248e2000df
:100cc40014427800e04f52000a00320045168000ba
:100cd4000410200004826200e00f5200050032007c
:100ce4000042eb000002fd00e2e8b7000002fd0054
:100cf400c7010700cefe070000427800e04f520013
:100d04000500320004cfb3000002fd00d2e8b700b2
:100d14000002fd0011003700648d200014427800a9
:100d2400e04f52000500320004c2b3000002fd008f
:100d3400d2e8b7000002fd0008003700a4168000c6
:100d440061026200e00f52000400320004c3b300e9
:100d54000002fd00d2e8b7000002fd00258d20004e
:100d64009542780004c5b30084cf520091ff32004d
:100d7400630037000002eb00644688000042eb0089
:100d84000002fd00cbe8b7000002fd00250037009b
:100d94000060fe0089020700a48c20001442780041
:100da400e04f5200060032000042eb000002fd005a
:100db400cae8b7000002fd0096050700a605070073
:100dc4009bfe070000427800e04f5200050032000d
:100dd40004cfb3000002fd00d2e8b7000002fd001a
:100de40010003700a416800061026200e00f520078
:100df40005003a0004c3b3000002fd00d2e8b700c6
:100e04000002fd000700370074468000e40f520022
:100e14000400360004c4b3000002fd00d2e8b700a9
:100e24000002fd00258d20009542780044c4b300e3
:100e340084cf5200d6ff3200310037009544800041
:100e44007444800004825200844688001d003700e8
:100e54000060fe00590207000906070074fe07003f
:100e640000427800e04f52000500320004cfb30086
:100e74000002fd00d2e8b7000002fd0011003700b7
:100e8400a416800061026200e00f520005003a00df
:100e940004c3b3000002fd00d2e8b7000002fd0065
:100ea40008003700a48c200014427800e04f520060
:100eb4000400320044c4b3000002fd00d2e8b700cd
:100ec4000002fd00258d20009542780004c4b30083
:100ed40084cf5200deff3200090037000060fe00bc
:100ee400360207000100370000000000248d2000b6
:100ef40014427800f04f4200f8ff32000000000076
:100f04000080fa00000006000000fa00cb42a900ad
:100f1400c502a900f42f2f0004168800f4bf2f0087
:100f2400341688000082eb00941688000082eb00df
:100f3400c4168800f4ff2300f41688008400a90076
:100f44009400a8008200a800240580000400a000ea
:100f54000410a0000420a0002405880084c0a90077
:100f640094c0a800340580000480a0000490a1006f
:100f740004a0a000340588008460a9009460a8003f
:100f84002405800004c0a00004d0a00004e0a10057
:100f9400240588008640a9009640a80064058000c6
:100fa4000480a1000490a00004a0a00064058800af
:100fb4009520a900440580000440a1000450a1002c
:100fc4000460a000440588009540a9004405800001
:100fd4000440a1000450a1000460a000440588005e
:100fe40074c622001408880004032800240888001a
:100ff400e4082000640888000403280084088800aa
:1010040060802000b90a070080842000b70a070026
:1010140054002000441188000002eb0004118800f1
:101024000042eb000400780004e8b7008540a90002
:101034008520a9009540a8009520a80021e2a800d9
:1010440004402000141188000002eb0034188800ca
:101054005402200004188800045f2f00141888002c
:1010640014102000541888000002eb006418880053
:10107400141020007418880001e3a80004ccb30005
:1010840004007800d8e8b7000042eb0004007800c0
:10109400d9e8b7000002eb00d44688000002eb0058
:1010a400e4468800808d2000f60a070004cab300d5
:1010b40004007800dee8b7000042eb00040078008a
:1010c400dfe8b7000042eb0004007800c7e8b7008f
:1010d4000080fa000000060000a0fe003600f800c0
:1010e400849fbe00869fbe000400fa00cb42a80085
:1010f40000000000000000000000000000000000ec
:1011040000000000000000000000000000000000db
:10111400000000000000000000000000cb42a90015
:1011240080252000010020003c0b070015168000dc
:101134000420200004826200e00f52008a003a007a
:101144000002eb00140798000002eb0094458800ad
:101154000002eb00a44588000603a9000aa3a80026
:10116400120037001e0290000402e80014079800e1
:10117400000000003418800061026200e00f520099
:10118400fcff32009545800004198000048242006f
:1011940094458800a545800014198000048242000b
:1011a400a44588000603a9000aa3a8001e02900013
:1011b400ed0f5200ebff36000000000034188000f1
:1011c40061026200e00f5200fcff3200954580008e
:1011d400041980000482420094458800a5458000db
:1011e4001419800004824200a445880094458000bc
:1011f4004422de0094458800a44580004422de0099
:10120400a445880095458000a445800004825200ce
:10121400040f7800748c2000144278000402fb0050
:101224001e0f4200f40720009e027800848f5200b3
:1012340003003400f4072000040f78000600370090
:1012440004f82f009e027800848f520002003d00b3
:1012540004f82f00040f780094458000e50f520035
:1012640003003600a4458000e50f520002003e0052
:101274000002eb00040f7800854480007444800071
:10128400848f5200040032000042eb000002fd0093
:10129400c8e8b7000002fd00848c200014427800e6
:1012a4000442e8000002fd00c8e8b7000002fd00a7
:1012b400848c200014427800ee4f52000400360063
:1012c400f4c0b3000002fd00c8e8b7000002fd004e
:1012d400948c2000144278000483fb001e027800e2
:1012e40004427800658b20008502430094429800f4
:1012f400948c2000144278000442e8000002fd00af
:10130400c9e8b7000002fd00948c20001442780064
:101314006f4262000002fd00c9e8b7000002fd0050
:10132400644680000402e800644688006546800044
:1013340004f02f00848f52000200360004f02f00c6
:10134400644688000002eb0074468800244780004d
:101354000402e8002447880014c0b3000002fd0022
:10136400cae8b7000002fd008400a9006e0107006e
:101374000080fa004f03be004f02be003600f900a1
:101384000080fe00004006000000fa00f5448000e2
:1013940094992100848f520002003e000042eb0029
:1013a40018003700f5448000c4cc2400848f520018
:1013b40002003e0014c0b30012003700f444800061
:1013c400e00f52000200350024c0b3000d003700c6
:1013d400f544800024332b00848f520002003e0029
:1013e40034c0b30007003700f544800054662e0073
:1013f400848f520002003e0044c0b3000100370055
:1014040054c0b300044078000080fa0000000600d5
:101414000200fa00dcff070000427800044f780065
:101424009e4278000582fb00cfa2de005600200019
:1014340007002000860f5200878f5a0027003e00c5
:101444000460010005003700090037002000370060
:101454001f0037001e0037001500370004458000c8
:101464004622de004322dd00844488001b0037004e
:10147400044580004622de004322dd0094448800b7
:10148400b544800094448000848f520002003600ea
:10149400042c2100944488009444800004017800c2
:1014a40011002000e08d2000aa0807000b0037007f
:1014b40004458000e00f520007003d0014c0b30053
:1014c4000002fd00d6e8b7000002fd00030037006b
:1014d4000000000001003700000000000080fa0056
:1014e400000006000200fa00a7ff0700004278008f
:1014f400044f78009e4278000582fb00cfa2de00f4
:101504005600200007002000860f5200878f5a00e3
:1015140042003e0004600100050037000900370066
:101524000d00370026003700290037002b00370054
:10153400744480004222dd004322de00d446880049
:1015440036003700944480004222dd004322de004e
:10155400d446880031003700748c2000144278008f
:10156400e04f52000d003500748c200014427800c6
:101574000402fb00d4468800748c200014427800d6
:101584000402fb000408b000d4468800d44680005e
:101594004422dd00d446880020003700748c2000eb
:1015a400144278000402fb000408b000d44688000a
:1015b400d44680004422dd00d4468800170037005a
:1015c400a44680004222dd00d44688001300370080
:1015d4000002eb00d446880010003700258d20005f
:1015e4009542780004c2b30084cf52000500320053
:1015f400258d20009542780044c2b30084cf520068
:1016040003003a00f4ff2000d446880003003700aa
:101614000002eb00d446880000000000808d20000a
:10162400a80907000080fa00000006000200fa0082
:1016340007e2a900e442a9000042eb00044f78004d
:1016440008003700e842a8004006200001002000fe
:10165400f2090700e842a90040062000010020002a
:10166400ee09070014c0b3009e427800f4cf520084
:10167400010036000042eb001e4fe800e04f52002c
:10168400f0ff3a00e442a80007e2a8000080fa0054
:10169400000006003600f800809fbe00829fbe0056
:1016a400849fbe00869fbe000000fa008460a900eb
:1016b4008cff070045108000044020000482620073
:1016c400e00f520002003200d8ff07000942a900cf
:1016d400648e2000144278000442e8000002fd00f9
:1016e400e6e8b7000002fd00658e20009542780010
:1016f40074c2b30084cf5200140036001417800063
:101704000482ea004f22de00044278000482fb00d7
:101714004f22dd0016178000f5ff270085026300c5
:1017240005027200141788000042eb000002fd005d
:10173400e6e8b7000002fd00244780004222de00f4
:10174400a44688000002eb00244788007446800009
:101754000402e8007446880075468000f4ef2f0008
:10176400848f52000200360004f02f007446880073
:101774000080fa004f03be004f02be004f01be00be
:101784004f00be003600f900004006000000fa00d9
:1017940000000000000000000000fe000080fa00cd
:1017a400004006000000fa000000000000000000f5
:1017b4000000fe000080fa00004006000000fa006d
:1017c4004480200014427800e24f520001003200ad
:1017d400070007004480200014427800e24f5200c2
:1017e40001003a00eb0007000080fa000000060048
:1017f4000400fa00881f78003f0037006080200052
:10180400e908070000427800044f78001e4278007f
:10181400ef4f420038003a0060802000e2080700e1
:1018240000427800044f78001e427800ee4f4200d8
:1018340031003a0060802000db0807000042780095
:10184400044f78001e427800ed4f42002a003a000f
:1018540060802000d408070000427800040078006b
:1018640000e8b70060802000cf080700004278003d
:101874000400780002e8b70060802000ca0807006e
:10188400004278000400780003e8b700608020007c
:10189400c5080700004278000400780001e8b7009a
:1018a40060802000c0080700004278000482fb002a
:1018b400140798001e0290004824dd006080200078
:1018c400b9080700004278000482fb0004024400c7
:1018d400140798001e00900062020700004278007e
:1018e400e04f52000400320024c0b3000002fd00a7
:1018f40004e8b7000002fd00448020001442780090
:10190400e04f520005003a0060802000c408070040
:1019140000427800e84f5200b8ff3e004f047800c0
:101924000080fa00000006000200fa00c4882000cb
:1019340014427800e04f520050003200e1cfb3006f
:101944008084200073080700744480004822de006d
:101954000442780084407800808420006d080700e9
:10196400744480000442780084407800808420001d
:1019740068080700844480004822de00044278009e
:10198400844078008084200062080700844480003a
:101994000442780084407800808420005d080700b9
:1019a40095458000f40f2000848f52000300360018
:1019b40000c2eb00044f7800020037009445800019
:1019c400044f78009e40780080842000510807006e
:1019d400a5458000f40f2000848f520003003600d8
:1019e40000c2eb00044f780002003700a4458000d9
:1019f400044f78009e40780080842000450807004a
:101a0400648b200014427800844078008084200095
:101a140040080700644680004822de000442780043
:101a240084407800808420003a08070064468000df
:101a34000442780084407800808420003508070040
:101a4400151180000420200004826200e00f52007f
:101a54000a003a00808420007c08070000427800d5
:101a6400e04f520005003200808420004e08070039
:101a7400004278000482fb00241188000080fa00f0
:101a8400000006000600fa0020479800314798003d
:101a940022079800c488200014427800e04f5200c6
:101aa4003a003a002e019000be4090002e40900073
:101ab400d501070000027800040f780011cfb300ad
:101ac400808420001308070021cfb3008084200005
:101ad4001008070041cfb300808420000d080700e0
:101ae400ae409000808420000a0807002e02900077
:101af4004822de000442780084407800808420007c
:101b0400040807002e029000044278008440780004
:101b140080842000ff070700be40900080842000de
:101b2400fc0707001e0278004822de000442780009
:101b34008440780080842000f60707001e027800a5
:101b4400044278008440780080842000f107070074
:101b5400151180000420200004826200e00f52006e
:101b64000a003a0080842000380807000042780008
:101b7400e04f520005003200808420000a0807006c
:101b8400004278000482fb00241188000080fa00df
:101b9400000006000600fa002480200014427800a9
:101ba4000482fb00040f78001e0278004822dd0046
:101bb400040f780034802000144278000482fb0073
:101bc4001e0f42001e0278001407980004802000b3
:101bd400144278000482fb0024079800048020004b
:101be400144278000482fb0025042000850f520073
:101bf400c100320025042000850f520017003c006c
:101c040025032000850f52004400320025032000e4
:101c1400850f520007003c0005022000850f52008a
:101c24002800320005032000850f52002d003200e9
:101c3400be00370065032000850f5200900032007b
:101c440005042000850f52004b003200450320009c
:101c5400850f52003a003200b40037000506200018
:101c6400850f52006500320005062000850f5200e2
:101c74000a003c0045052000850f52005100320047
:101c840065052000850f52008500320005052000ff
:101c9400850f520041003200a400370025072000c0
:101ca400850f52008c003200050e2000850f520073
:101cb4009300320005072000850f520029003200ee
:101cc4009a00370014802000144278000482fb003c
:101cd40004007800a20007000002780014079800ae
:101ce40092003700258d20009542780044c4b3004b
:101cf40084cf520084003200258d20009542780064
:101d040004c4b30084cf5200810032009e007800e6
:101d140020002000f003070084003700258d2000f8
:101d24009542780004c5b30084cf52007a003a008b
:101d34009e00780010002000e70307007b003700b6
:101d4400258d20009542780004c5b30084cf52004d
:101d540073003a009e0078000000eb00de030700e9
:101d64007200370014c0b3000002fd00d6e8b700cb
:101d74000002fd006d00370014802000144278003a
:101d84000482fb0084007800e08d2000cd0607006b
:101d940000027800140798006400370014802000c3
:101da400144278000482fb00e4024200248b2000e9
:101db40004824200144290000402fb0014079800bd
:101dc4005a003700e49f20009e027800848f52005e
:101dd40002003600f49f2000040f7800e4ff2f0077
:101de4001e0f62001e027800544488005444800090
:101df40094027800150798004c00370014802000e6
:101e040014427800e04f520006003a001e027800a7
:101e1400044278000002fd00c7e8b7000002fd009c
:101e24000f0037001480200014427800e14f520064
:101e34000b003a000042eb0004007800c7e8b7004a
:101e4400748c200014427800844278001e027800ca
:101e54000442780004c2520004007800c7e8b700c6
:101e6400748c2000144278000402fb000401780002
:101e740021002000e08d2000360607002b003700eb
:101e84001e02780094448800944480000401780081
:101e940011002000e08d20002e06070023003700eb
:101ea4001480200014427800e14f520005003a00eb
:101eb40014c0b3000002fd008ce8b7000002fd006e
:101ec4001a0037000042eb000002fd008ce8b70066
:101ed4000002fd0015003700258d20009542780092
:101ee40004c4b30084cf52000f003a0004f02f0062
:101ef400744688000d003700000000000b00370016
:101f0400000000000900370000000000070037004f
:101f14000000000005003700000000000300370047
:101f240000000000010037000000000015802000c0
:101f3400954278002e029000044278001e01900021
:101f44008540780004407800cefe07000042eb0094
:101f54000400780004e8b7000080fa0000000600de
:101f64000400fa00100798001e0290006123b800d4
:101f74000082eb008082eb000602420087824a0066
:101f8400f604200007002000860f5200878f5a00b5
:101f940099003e00046001004f00370053003700f1
:101fa4009500370094003700930037009200370003
:101fb40091003700900037008f0037008e00370003
:101fc4008d0037008c0037008b0037008a00370003
:101fd4008900370048003700870037004900370080
:101fe400850037004a003700830037004b00370074
:101ff400810037004c0037007f0037007e00370037
:102004007d0037007c0037007b0037007a00370002
:102014007900370078003700770037007600370002
:102024007500370074003700730037007200370002
:1020340071003700700037006f0037006e00370002
:102044006d0037006c0037006b0037006a00370002
:102054006900370037003700390037003b0037008c
:102064003d0037006400370063003700620037002a
:1020740061003700600037005f0037005e00370002
:102084003800370050003700520037005a0037003c
:102094005900370036003700380037003a0037005f
:1020a4003e003700420037004d0037004f00370034
:1020b40051003700500037004f0037004e00370002
:1020c4004d0037004c0037004b0037004a00370002
:1020d4004900370039003700248d2000144278006d
:1020e4000482fb00040f780043003700140320002f
:1020f400040f78004000370074448000040f780017
:102104003d00370084448000040f78003a00370013
:1021140094448000040f780037003700a444800002
:10212400040f780034003700b4448000040f7800b2
:102134003100370004198000040f78002e003700a6
:1021440014198000040f78002b003700d444800059
:10215400040f780028003700e4448000040f78005e
:1021640025003700f4448000040f78002200370073
:1021740094458000040f78001f003700a4458000b8
:10218400040f78001c003700648b20001442780090
:102194000402fb00040f780017003700748c200041
:1021a400144278000402fb00040f78001200370088
:1021b40064468000040f78000f003700a4468000b6
:1021c400040f78000c00370004458000040f7800e9
:1021d40009003700d4468000040f78000600370059
:1021e40074468000040f78000300370084468000a2
:1021f400040f7800000000001e027800040078003c
:102204000080fa00000006000600fa00204798004b
:102214003147980022079800742d2000040f78009d
:102224002e4290008482fb003e4290000482fb0018
:10223400048242001e0f42002e0290004822de005b
:102244001e0f4200ae029000f40f200004826200d0
:102254001e0f42001e027800040078000080fa007d
:10226400000006000400fa0010079800642d200006
:10227400040f780004802000144278008482fb005c
:1022840014802000144278000482fb00048242007f
:102294001e0f420024802000144278008482fb0038
:1022a40034802000144278000482fb00048242003f
:1022b4001e0f42001e0290009e027800848f52007e
:1022c40002003a0014c0b300010037000042eb00e2
:1022d400044078000080fa00000006003600f80090
:1022e400809fbe00829fbe00849fbe00869fbe006a
:1022f400889fbe004400f8004200f8000000fa0085
:102304008520a900090037003411800004427800b8
:102314008440780060802000280280001902800038
:10232400fc050700190288002802880014118000a7
:1023340061026200e00f5200f3ff3a000080fa00ed
:102344004200f9004400f9004f04be004f03be00f0
:102354004f02be004f01be004f00be003600f90020
:10236400004006003600f800809fbe00829fbe0039
:10237400849fbe00869fbe00889fbe004400f80074
:102384004200f8000000fa008540a9000900370067
:1023940080842000280280001902800002060700c1
:1023a4001902880028028800004278000482fb0099
:1023b400241188001511800004202000048262008a
:1023c400e00f520009003a008084200028028000b7
:1023d40019028000120607001902880028028800ea
:1023e40000427800e04f5200e9ff3a000080fa0012
:1023f4004200f9004400f9004f04be004f03be0040
:102404004f02be004f01be004f00be003600f9006f
:10241400004006000000fa00b48c2000144278004a
:10242400e04f520006003a007201070000427800b3
:102434000002fd00b6e8b7000002fd00040037000a
:10244400270107000042780004007800b6e8b700ce
:102454000080fa00000006000200fa0074448000c4
:10246400040f780065468000f40f2000848f52002a
:102474000400360014c0b3000002fd00cbe8b7002e
:102484000002fd00b48c200014427800e04f52009a
:102494005c003a00648b200014427800fb4f520029
:1024a40003003400040220001e0f420051003700d4
:1024b400648b200014427800f24f52000300340071
:1024c4001e027800780f42004a003700648b200017
:1024d40014427800e94f5200030034001e027800d1
:1024e400700f420043003700648b200014427800d0
:1024f400e34f5200030034001e027800680f4200cc
:102504003c003700648b200014427800e24f420004
:10251400090035006546800034062000848f52008f
:102524003400360014c0b3000002fd00cbe8b7004d
:102534000002fd002f003700648b20001442780055
:10254400e84f4200090035001e027800e00f5200f7
:10255400030032001e027800680f52002500370085
:102564000002eb00040f780022003700648b200087
:1025740014427800f14f4200090035001e02780031
:10258400e10f5200030036001e027800700f520063
:10259400180037000002eb00040f78001500370024
:1025a400648b200014427800fa4f42000900350081
:1025b4001e027800e20f5200030036001e0278006b
:1025c400780f52000b0037000002eb00040f780074
:1025d400080037001e027800e30f520003003600a3
:1025e40004fe2f001e0f4200020037000002eb0021
:1025f400040f78009e00780020002000b601070038
:102604001d0037007544800084448000848f52008c
:1026140019003a0074448000040f7800648b200091
:1026240014427800e34f5200080034001e02780080
:10263400e10f4200100032001e0fe8009e007800f7
:1026440020002000a40107000b003700648b200049
:1026540014427800e34f420007003d001e02780058
:10266400e00f5200040032001e0fe9009e007800c3
:1026740020002000980107000080fa0000000600f6
:102684000a00fa007446800034079800451f84004d
:102694003e029000848f520004003e006022b80085
:1026a4001407980025079800850037000042eb00c6
:1026b400044f7800010037001e4fe8001e427800e6
:1026c400f54f520009003e009e4278000582fb004f
:1026d40084024200a43b2800048242009402780051
:1026e4003e029000848f5200f3ff36001e437800b0
:1026f4000682fb007802420084024200a43b2800c8
:1027040004824200940278001e4378000682fb0093
:102714000402e8007802420004034200a43b2800bb
:1027240004024300140278000482520005002000d1
:1027340014079800250798009e4278000582fb0044
:102744000402e80084024200a43b28000482420000
:10275400940278003e02900004825200050020009a
:102764002e03900004b3b900060378009e03900082
:1027740005b8b90080037800070343009e03900066
:10278400040278000722b80005034300860278009b
:102794001407980025079800140798002507980047
:1027a4001e4378000682fb000402e8008402420013
:1027b400a43b280004824200940278001e4378005f
:1027c4000682fb0004034200a43b280004024300e9
:1027d4001402780004825200050020000401be00a7
:1027e4001e009000ae009000d1f607000002be006b
:1027f40014079800250798009e4278000582fb0084
:102804000402e8007802420084024200a43b28004b
:102814000482420014027800050020001e03900088
:10282400ae0390000602420087824a001407980013
:102834002507980084468000cfa2de002e03900076
:1028440004b3b900060378009e03900005b8b900ec
:1028540080037800070343009e039000040278007d
:102864000722b80005034300860278001407980085
:102874002507980014079800250798001e03900068
:10288400460798001e029000ae029000402ade0027
:102894000500200014079800250798004e029000b8
:1028a400e00f520006003d001e029000ae029000b0
:1028b40061024200e0824a0014079800250798004c
:1028c400954480001e029000048252008400780027
:1028d40020002000000107000080fa00000006002c
:1028e4000800fa006546800034402000848f5200be
:1028f40003003e0044002000240798000200370033
:102904008400200024079800654680002e02900071
:10291400848f520006003900848c20001442780011
:102924008482fb002e029000848f5200020031004a
:102934000042eb002c003700948c200014427800f5
:10294400244798000002eb00040f78000002eb001b
:1029540034079800110037002e4290000442e90029
:10296400244798002e4290006f426200244798004a
:102974002e4290000482fb00e4024200248b2000db
:1029840004824200144290000402fb001e0f420025
:102994003e0290000402e80034079800be02900052
:1029a4002e029000848f5200ebff39002e0290001b
:1029b400e80f520004003a001e02780043a2de0031
:1029c400040f7800060037002e029000e40f520036
:1029d40003003a001e02780042a2de00040f7800d1
:1029e4001e02780004427800044078000080fa0057
:1029f400000006000400fa0064468000e10f520063
:102a040002003e000042eb0020003700948c2000be
:102a140014427800044f78001e4fe9009e4278006b
:102a24006fcf62009e4278000582fb00e402420000
:102a3400248b200004824200144290000402fb0014
:102a4400140798001e4fe9001e4278006f4f620081
:102a54009e4278000582fb00e4024200248b2000a1
:102a640004824200144290000402fb009e02900083
:102a740004824200140798001e0290000482d100d0
:102a8400140798001e029000044278000440780065
:102a94000080fa00000006000000fa000042eb008b
:102aa40004007800b7e8b7000042eb0004007800a7
:102ab400b8e8b7000042eb0004007800b9e8b700ba
:102ac4000042eb0004007800bae8b7000042eb00d3
:102ad40004007800bbe8b7000042eb000400780073
:102ae400bce8b7000042eb0004007800bde8b70082
:102af4000042eb0004007800bee8b7000042eb009f
:102b040004007800bfe8b7000042eb00040078003e
:102b1400c0e8b7000042eb0004007800c1e8b70049
:102b24000042eb0004007800c2e8b7000042eb006a
:102b340004007800c3e8b7000042eb00040078000a
:102b4400c4e8b7000042eb0004007800c5e8b70011
:102b54000042eb0004007800c6e8b7000080fa00e9
:102b6400000006000000fa0004c22100a44488000a
:102b740004322000b444880011002000e08d2000bd
:102b840050030700000278009444880095448000b4
:102b9400a4448000848f520002003900a4448000c1
:102ba4009444880095448000b4448000848f52008b
:102bb40002003e00b44480009444880094448000a1
:102bc4008444880094448000744488000002eb002c
:102bd400144588000042eb0004007800a9e8b7001f
:102be4000002eb00544588000002eb0064458800b5
:102bf4000002eb007445880004af2500142088000f
:102c040004002c0054208800140020004420880074
:102c1400541720009420880054172000a420880012
:102c240084d72200742088000002eb0084208800ee
:102c340004002c00f420880014002000e420880004
:102c440054172000342188005417200044218800a0
:102c540084d72200142188000002eb00242188007c
:102c640004002c0094218800140020008421880092
:102c740054172000d421880054172000e421880030
:102c840084d72200b42188000002eb00c42188000c
:102c940004002c0034228800140020002422880020
:102ca40054172000742288005417200084228800be
:102cb40084d72200542288000002eb00642288009a
:102cc400a4002000342088000164a80001e4a800c6
:102cd4000080fa00000006000800fa0020079800af
:102ce4003107980084448000140798002e02900055
:102cf400e20f520003003a003e029000040f7800f5
:102d04001c0037002e029000e10f52000c003a0024
:102d14003e0290008482ea001e029000848f5200da
:102d2400040036009e0290003e029000048f420090
:102d3400100037000082eb00040f78000d0037000c
:102d44002e029000e00f52000a003a009e0290000a
:102d54003e029000848f5200040039009e029000cd
:102d64003e029000048f5200020037000002eb0084
:102d7400040f7800a44480009e0f520002003e001d
:102d8400a4448000040f7800b44480009e0f5200d5
:102d940002003900b4448000040f78001e02780059
:102da400844488000080fa0000000600801f780038
:102db400849fbe003400f80000002000a0018800b9
:102dc4004400f8004200f8000800fa008640a90018
:102dd400948a2000144278000442e8000002fd00b6
:102de400a9e8b7000002fd00958a2000954278000a
:102df400f4c3b30084cf5200140036000042eb0049
:102e04000002fd00a9e8b7000002fd00544580005f
:102e1400f4448800844580000445880064458000ab
:102e2400d444880074458000e44488000002eb0028
:102e3400544588000002eb00644588000002eb0062
:102e4400744588000002eb00844588000ba3a900a8
:102e54000fa3a9000ea3a900854580009419800042
:102e6400048242008445880055458000b4198000de
:102e7400048242005445880065458000241980007e
:102e8400048242006445880075458000341980003e
:102e940004824200744588000ba3a8000fa3a80075
:102ea4000ea3a8008489200014427800e24f520047
:102eb400810032000042eb000002fd00c8e8b700c8
:102ec4000002fd000002eb0034458800848a2000e3
:102ed400144278000442e8000002fd00a8e8b700ac
:102ee4000002fd00258d20009542780044c4b30003
:102ef40084cf520009003a00b48c200014427800b8
:102f0400e04f52000500320044022000040f780014
:102f14008423200064088800040037006400200033
:102f2400040f7800e408200064088800848a2000e4
:102f3400144278000482fb009e0f5200980039006e
:102f44000042eb000002fd00a8e8b7000002fd000b
:102f54008489200014427800e14f520004003a00b2
:102f6400144580000402e90014458800030037007a
:102f7400144580000402e8001445880015458000cb
:102f8400f407200004826200144588001445800080
:102f94000402b000140798009e029000f407200079
:102fa4000482620014079800144580000404b000f1
:102fb40024079800ae029000f40720000482620007
:102fc40024079800144580000406b00034079800d4
:102fd400be029000f40720000482620034079800c7
:102fe4001445800084024200a41b2800048242008d
:102ff40014027800742088002e029000840242009b
:10300400a41b2800048242001402780014218800c2
:103014001e02900084024200a41b28000482420085
:1030240014027800b42188003e0290008402420019
:10303400a41b280004824200140278005422880051
:10304400244580000402e8002445880024458000cb
:10305400e30f5200520036000002eb0024458800c2
:103064008489200014427800e14f520007003a009e
:1030740074448000e10f42000a003200744480006e
:103084000402e80074448800060037007444800099
:10309400e00f520003003200744480000402e9008f
:1030a4007444880024c0b3000002fd0098e8b7000f
:1030b4000002fd003a003700344580000402e800b5
:1030c4003445880035458000f4f92000848f52008f
:1030d4003300360004fa200034458800154580008a
:1030e400f40720000482620014458800144580001f
:1030f4000402b000140798009e029000f407200018
:103104000482620014079800144580000404b0008f
:1031140024079800ae029000f407200004826200a5
:1031240024079800144580000406b0003407980072
:10313400be029000f4072000048262003407980065
:103144001445800084024200a42b2800048242001b
:1031540014027800742088002e0290008402420039
:10316400a42b280004824200140278001421880051
:103174001e02900084024200a42b28000482420014
:1031840014027800b42188003e02900084024200b8
:10319400a42b2800048242001402780054228800e0
:1031a4000080fa004200f9004400f9003400f900fc
:1031b4004f02be004f00780000400600801f7800d8
:1031c400849fbe000000fa0084c0a9008489200006
:1031d40014427800e24f52001c003a0085448000fb
:1031e400a4448000848f520002003600a44480006e
:1031f4008444880085448000b4448000848f520055
:1032040002003100b4448000844488007544800086
:1032140084448000848f5200050036000042eb0095
:103224000002fd0098e8b7000002fd000700370027
:103234007544800084448000848f52000300310070
:1032440014c0b3000400780098e8b7000080fa00c6
:103254004f02be004f007800004006001400fa0040
:103264004047980031079800420798005307980098
:103274006407980075079800060f9800170f9800c8
:103284006e039000fe039000433add00cd32de0071
:10329400850272004332dd004e019000de01900091
:1032a4000400be0022f407000002be00048fbe002a
:1032b4001e02780054478800544780000402d1005d
:1032c400544788000e0b90009e0b9000433add009b
:1032d400cd32de00850272004332dd001e1f120073
:1032e4001e971a001e02be004d2bdd004322de0095
:1032f40004027300c32ade00048fbe000082eb00c8
:103304008082eb001e0f42005e974a001e03be003f
:103314001400200005002000840f5300858f5b00fb
:1033240003003e002400200005002000048fbe009e
:10333400f4ff2f00050020001e03be00840f53007d
:10334400858f5b0003003600240020000500200068
:10335400048fbe004e429000e04f52000300320042
:103364004e429000e14f520004003a00be02900029
:10337400351088001e027800241088000080fa00ae
:10338400000006000600fa00404798000002eb0027
:10339400140798004e429000e04f520003003200a0
:1033a4004e429000e14f520013003a000002eb003d
:1033b400040f78000b0037001e0fe800544780000c
:1033c4009e027800848f52000600360004a02f006d
:1033d40014079800444780000402e800444788002a
:1033e40005003700451080000400240004826200b8
:1033f400e00f5200f0ff3a001e0290000400780033
:103404000080fa00000006000600fa004047980019
:103414000002eb00140798004e429000e04f520067
:10342400030032004e429000e14f520013003a0074
:103434000602a8000002eb00040f78000b0037001e
:103444001e0fe800544780009e027800848f5200cb
:103454000600360004a02f0014079800444780009b
:103464000402e80044478800040037003410800058
:1034740061026200e00f5200f1ff3a001e02900068
:10348400040078000080fa00000006000600fa003c
:10349400404798000002eb00140798004e42900049
:1034a400e04f5200030032004e429000e14f5200c0
:1034b40013003a000622a8000002eb00040f780073
:1034c4000b0037001e0fe800544780009e0278006e
:1034d400848f52000600360004a02f0014079800c1
:1034e400444780000402e800444788000400370091
:1034f4003410800062026200e00f5200f1ff3a00d3
:103504001e029000040078000080fa00000006000b
:103514000600fa0040479800514798000002eb006b
:10352400140798005e429000e04f520003003200fe
:103534005e429000e14f520028003a004e42900053
:103544000482fb00141088000002eb00040f7800d2
:103554000c0037001e0fe800544780009e027800dc
:10356400848f52000700360004a02f00140798002f
:10357400444780000402e80044478800000000003b
:10358400110037004510800004002400048262000a
:10359400e00f5200efff32000b0037001e0fe8006f
:1035a400544780009e027800848f52000600360043
:1035b40004a02f0014079800444780000402e80088
:1035c40044478800050037004510800004002400ab
:1035d40004826200e00f5200f0ff3a001e029000e5
:1035e400040078000080fa00000006000600fa00db
:1035f400404798000002eb00140798004e429000e8
:10360400e04f5200030032004e429000e14f52005e
:103614002b003a000662a8000002eb00040f7800b9
:103624000c0037001e0fe800544780009e0278000b
:10363400848f52000700360004a02f00140798005e
:10364400444780000402e80044478800000000006a
:10365400100037003410800068026200e00f52004e
:10366400f0ff3a000b0037001e0fe80054478000bb
:103674009e027800848f52000600360004a02f00ba
:1036840014079800444780000402e8004447880077
:10369400040037004410800062026200e00f520010
:1036a400f1ff32001e029000e00f520004003a00c5
:1036b40005108000f40f20000482620014079800b3
:1036c4001e029000040078000080fa00000006004a
:1036d4000600fa00404798000002eb001407980027
:1036e4004e429000e04f5200030032004e429000e0
:1036f400e14f520013003a000642a8000002eb001a
:10370400040f78000b0037001e0fe80054478000b8
:103714009e027800848f52000600360004a02f0019
:1037240014079800444780000402e80044478800d6
:10373400040037003410800064026200e00f52007d
:10374400f1ff3a001e029000040078000080fa00a5
:10375400000006000e00fa00400798005107980088
:1037640062079800de029000f4f32100848f520077
:1037740052003e006e0290004822de00044f7800a2
:103784006e029000144798005e029000040242000a
:10379400140798001e0290004822de004447980057
:1037a4001e029000544798004e029000144290006c
:1037b40004407800f3fe0700000278003407980004
:1037c4004e02900014429000044078000eff07005f
:1037d40000027800be0290000502720034079800cf
:1037e4004e029000944290004e02900014427800e1
:1037f400854078000440780045ff07000002780007
:10380400be02900005027200340798004e02900038
:1038140014429000844078004e4090003cff070022
:1038240000027800be02900005027200340798007e
:103834004e02900014429000844078005e40900054
:1038440033ff070000027800be02900005027200f8
:10385400340798004e02900014429000844078008f
:103864001e4090002aff070000027800be0290006c
:1038740005027200340798004e0290001442900032
:10388400844078001e40780021ff07000002780081
:10389400be02900005027200340798004e029000a8
:1038a400144290000440780089ff07000002780069
:1038b400be02900005027200340798000080fa00ee
:1038c400000006000c00fa00400798005107980019
:1038d400de029000f4f32100848f520070003e0059
:1038e4005e02900004024200140798001e02900039
:1038f4004822de00444798001e0290005447980076
:103904004e02900014429000044078009dfe07008f
:1039140000027800340798004e0290001442900090
:1039240004407800b8fe070000027800be02900050
:1039340005027200340798004e02900094429000f1
:103944004e029000144278008540780004407800cc
:10395400effe070000027800be029000050272002c
:10396400340798004e02900014429000844078007e
:103974004e409000e6fe070000027800be02900070
:1039840005027200340798004e0290001442900021
:10399400844078005e409000ddfe0700000278005d
:1039a400be02900005027200340798004e02900097
:1039b4001442900004407800b4fe0700000278002e
:1039c400be02900005027200340798004e02900077
:1039d400944290004e029000144278000404a00027
:1039e4008540780004407800c9fe07000002780092
:1039f400be02900005027200340798004e02900047
:103a04001442900004407800f8fe07000002780099
:103a1400044f78004e029000144290000440780055
:103a24009afe070000027800be02900005027200b0
:103a3400340798004e029000944290004e02900089
:103a4400144278000404a000854078000440780003
:103a5400affe070000027800be029000050272006b
:103a6400340798004e0290001442900004407800fd
:103a7400defe070000027800144798004e02900012
:103a8400144290000440780011ff070000027800ff
:103a9400be0290000502720034079800040037004b
:103aa4000042eb00044f78000042eb0014479800fa
:103ab4001e4290000482fb00140798001e0290002e
:103ac4004822dd00140798009e4278000582fb001e
:103ad4009e02900004824200140798001e02900087
:103ae400040078000080fa00000006000200fa00da
:103af400000f78009e0278000042eb0084c2980018
:103b04009e0278000042eb0094c298000080fa0004
:103b1400000006000400fa00000f78002147980016
:103b24001e02780004c290000482fb009e0278000a
:103b34002e43900086727a001e02780004c2900020
:103b44000442e8009e02780084c298001e027800b5
:103b540004c29000f443b2009e02780084c298002c
:103b64001e02780084c290001e02780014c29000e5
:103b740084cf52000a003a001e02780014c290005a
:103b84000442e8009e02780094c298001e02780065
:103b940014c29000f443b2009e02780094c29800cc
:103ba4000080fa00000006000400fa0010079800e4
:103bb4001e02900094c29000154798001e029000c7
:103bc40084c290001e42900084cf52000e00320046
:103bd4001e4290000482fb009e029000654f7a0012
:103be4001e4290000442e800144798001e429000d0
:103bf400f443b200144798001e0290009e429000c5
:103c040015c29800020037000042eb00044f780010
:103c14001e427800044078000080fa00000006008c
:103c24000200fa00000f78001e02780084c290009f
:103c34001e02780014c2900004c25200f443b20081
:103c4400044078000080fa00000006000200fa0038
:103c5400000f78001e02780084c290001e027800d3
:103c640014c2900084cf520002003a000042eb00dc
:103c74000100370014c0b300044078000080fa004b
:103c8400000006000200fa00000f78001e0278000f
:103c940014409000a601200007002000047e2000ac
:103ca400c51b2000026a28001300200001022b001b
:103cb4006afd07001e007800020007000080fa0079
:103cc400000006000600fa00200798002e0290006b
:103cd40014029000044f78002e0290001402900009
:103ce4004822de00144798002e02900014429000ef
:103cf40004407800a3fd0700000278001407980030
:103d04002e0290001442900004407800befd07008b
:103d1400000278009e0290000502720014079800c9
:103d24002e029000944290002e02900014427800db
:103d34008540780004407800f5fd07000002780013
:103d44009e02900005027200140798002e02900053
:103d540014429000844078001e409000ecfd07005f
:103d6400000278009e029000050272001407980079
:103d74002e02900014429000844078001e40780087
:103d8400e3fd0700000278009e0290000502720025
:103d9400140798002e02900014429000044078000a
:103da4004bfe0700000278009e029000050272009c
:103db400140798001e029000e00f52000500320024
:103dc4002e029000240290008402e8002e0290004b
:0c3dd400250298000080fa0000000600a4
:020000040000fa
:103de000d2080000160000000000000000080000db
:103df0008e000000000000008e080000240000007b
:103e000000000000e80800000400000000000000be
:103e1000b2080000200000000000000000000000c8
:020000040000fa
:103e2000f03fb1000180b10006003500ee0309004b
:103e300000000000403fb1000180b100fbff3d00e9
:103e40001000b000203fb0000200350000800900e3
:083e5000000000000000060064
:020000040000fa
:0200000401f009
:04000000ffff0000fe
:020000040000fa
:0200000401f009
:04000800ffff0000f6
:020000040000fa
:0200000401f009
:04000c00fdff0000f4
:020000040000fa
:0200000401f009
:040010007fff00006e
:020000040000fa
:0200000401f009
:04001400ebff0000fe
:020000040000fa
:0200000401f009
:04001800ffff0000e6
:020000040000fa
:0200000401f009
:04001c00ffff0000e2
:00000001FF
