:020000040000fa
:080000000001040000000000f3
:020000040000fa
:100008001c0b00001c0b00001c0b0000100b000058
:100018001c0b00001c0b00001c0b00001c0b00003c
:10002800b80700001c0b00001c0b00009e0a000013
:100038001c0b00001c0b0000681700001c0b0000c4
:100048001c0b0000341000006c1000001c0b00009a
:100058001c0b00001c0b00001c0b00001c0b0000fc
:100068001c0b00001c0b00008a1500001c0b000074
:100078001c0b00001c0b00001c0b00001c0b0000dc
:100088001c0b00001c0b00001c0b00001c0b0000cc
:100098001c0b00001c0b00001c0b00001c0b0000bc
:1000a8001c0b00001c0b00001c0b00001c0b0000ac
:1000b8001c0b00001c0b00001c0b00001c0b00009c
:1000c8001c0b00001c0b00001c0b00001c0b00008c
:1000d8001c0b00001c0b00001c0b00001c0b00007c
:1000e8001c0b00001c0b00001c0b00001c0b00006c
:0800f8001c0b00001c0b0000b2
:020000040000fa
:100108001c0b00001c0b00001c0b0000100b000057
:100118001c0b00001c0b00001c0b00001c0b00003b
:10012800b80700001c0b00001c0b00009e0a000012
:100138001c0b00001c0b0000681700001c0b0000c3
:100148001c0b0000341000006c1000001c0b000099
:100158001c0b00001c0b00001c0b00001c0b0000fb
:100168001c0b00001c0b00008a1500001c0b000073
:100178001c0b00001c0b00001c0b00001c0b0000db
:100188001c0b00001c0b00001c0b00001c0b0000cb
:100198001c0b00001c0b00001c0b00001c0b0000bb
:1001a8001c0b00001c0b00001c0b00001c0b0000ab
:1001b8001c0b00001c0b00001c0b00001c0b00009b
:1001c8001c0b00001c0b00001c0b00001c0b00008b
:1001d8001c0b00001c0b00001c0b00001c0b00007b
:1001e8001c0b00001c0b00001c0b00001c0b00006b
:0801f8001c0b00001c0b0000b1
:020000040000fa
:10020000af8e20000e9f20000e018800000000002d
:100210000c00070020cf2100010020001100070082
:10022000000020000000e000020032000000020098
:100230000000000018040200000000000040da0086
:100240000000fe004440a900002620000000e0005d
:100250000300320000002000a00188004440a800f4
:100260000000060091018800800078000000eb008b
:1002700015003700e280400032a0b4009101ba00be
:10028000e280400032a0b4009102ba00e280400057
:1002900032a0b4000002eb00472bde00f507b200ed
:1002a000602ce10004003a000059eb008301e900f2
:1002b000fdff3e00040037006128e100010032002c
:1002c0000082eb00040007001101ba000200e00008
:1002d000e8ff3a00000006003159ba008301e90046
:1002e0000c0032002159ba008301e90008003200f5
:1002f0000400e00003003a00e280400032a0b400b5
:10030000f5ff370011d9ba008301e900faff3a007e
:100310008100e800e180400032a0b4000000060047
:100320006022b800060220000000d0008180d200c8
:100330000482d2008582d2000000a0000202520096
:1003400083825a00030031000202420083824a0085
:100350000000a1000603e900f3ff3a0000000600d8
:020000040000fa
:10036000285a0000285a0000285a0000285a000085
:10037000285a0000285a0000285a0000285a000075
:10038000285a0000285a0000285a0000285a000065
:10039000285a0000285a0000285a0000285a000055
:1003a000285a0000285a0000285a0000285a000045
:1003b000285a0000285a0000285a0000285a000035
:1003c000285a0000285a0000285a0000285a000025
:1003d000285a0000285a0000285a0000285a000015
:1003e000285a0000285a0000285a0000285a000005
:1003f000285a0000285a0000285a0000285a0000f5
:10040000285a0000285a0000285a0000285a0000e4
:10041000285a0000285a0000285a0000285a0000d4
:10042000285a0000285a0000285a0000285a0000c4
:10043000285a0000285a0000285a0000285a0000b4
:10044000285a0000285a0000285a0000285a0000a4
:10045000285a0000285a0000285a0000285a000094
:10046000285a00007a550000c452000012500000c3
:10047000674d0000c54a00002c4800009f45000061
:100480001f430000ae4000004d3e0000fe3b000058
:10049000c23900009a370000883500008d33000013
:1004a000ab310000e22f0000332e0000a02c000032
:1004b0002a2b0000d1290000962800007a2700008e
:1004c0007f260000a3250000e82400004f24000040
:1004d000d7230000822300004e2300003d230000ac
:1004e0004e23000082230000d72300004f24000089
:1004f000e8240000a32500007f2600007a270000e2
:1005000096280000d12900002a2b0000a02c000012
:10051000332e0000e22f0000ab3100008d330000cd
:10052000883500009a370000c2390000fe3b000009
:100530004d3e0000ae4000001f4300009f450000fc
:100540002c480000c54a0000674d00001250000012
:10055000c45200007a55000034580000285a0000a8
:10056000285a0000285a0000285a0000285a000083
:10057000285a0000285a0000285a0000285a000073
:10058000285a0000285a0000285a0000285a000063
:10059000285a0000285a0000285a0000285a000053
:1005a000285a0000285a0000285a0000285a000043
:1005b000285a0000285a0000285a0000285a000033
:1005c000285a0000285a0000285a0000285a000023
:1005d000285a0000285a0000285a0000285a000013
:1005e000285a0000285a0000285a0000285a000003
:1005f000285a0000285a0000285a0000285a0000f3
:10060000285a0000285a0000285a0000285a0000e2
:10061000285a0000285a0000285a0000285a0000d2
:10062000285a0000285a0000285a0000285a0000c2
:10063000285a0000285a0000285a0000285a0000b2
:10064000285a0000285a0000285a0000285a0000a2
:10065000285a0000285a0000285a0000285a000092
:10066000285a0000175700002d550000475300007e
:10067000665100008b4f0000b74d0000ea4b0000b0
:10068000274a00006f480000c246000021450000d4
:100690008e43000009420000934000002e3f0000fe
:1006a000da3d0000983c0000683b00004c3a000036
:1006b000453900005138000074370000ac360000a6
:1006c000fa35000060350000dc34000070340000b2
:1006d0001c340000df330000bb330000af330000e8
:1006e000bb330000df3300001c3400007034000016
:1006f000dc34000060350000fa350000ac36000044
:100700007437000051380000453900004c3a0000b1
:10071000683b0000983c0000da3d00002e3f0000de
:1007200093400000094200008e4300002145000074
:10073000c24600006f480000274a0000ea4b000054
:10074000b74d00008b4f000066510000475300007a
:100750002d5500001757000003590000285a0000cb
:1007600000000000080000000b0000001000000066
:1007700017000000200000002d00000040000000d5
:100780005b00000080000000b500000000010000d8
:100790006a01000000020000d40200000004000012
:1007a000a805000000080000500b00000010000029
:1007b000a116000000200000412d000000400000b4
:1007c00021ff000021ff000021ff000021ff0000a9
:1007d0008bfc0000f6f7000018f1000087e700002e
:1007e00069db000063cd000063bd000094ac000035
:1007f0000f9c00004e8c0000cd7c0000786c000047
:10080000fa5a00002c490000903800002d2a000000
:10081000111e0000b8130000250b000000000000ae
:020000040000fa
:100820000000fa000040eb000080fa000000060023
:100830000000fa0000000000113a800000022000d1
:1008400000806000e00f5000fbff320000382c00f9
:10085000911c20007e0c07000060fe0000c1b30068
:10086000d2e8b70001000700feff37000000fa00e1
:10087000d2c8bf000080fb0001032000810f5000a0
:100880008600320001032000810f50000e003c0062
:10089000f80f500023003200f80f500003003c0016
:1008a000f00f5000190032003b0137000102200018
:1008b000810f50004100320041022000810f5000a2
:1008c0005d0032003401370041042000810f5000e8
:1008d000e300320041042000810f500004003c007e
:1008e00001042000810f5000030132002a0137006b
:1008f00001052000810f50007e003200010f200012
:10090000810f50001f013200230137000060fe00fc
:1009100023010700ef07070080c1b300d2e8b7004a
:100920001d01370010c0b300dee8b7001f0037001c
:10093000470307000060fe00411680000010200001
:1009400000806000e00f500002003a0010c0b300c9
:10095000e1e8b700e1c8bf00e04f500008003200f6
:10096000411680000010200000806000e00f500061
:10097000030032000040eb00e1e8b7003602070058
:10098000a7ff0700e04f50000300320000cfb30084
:10099000d2e8b70005003700dec8bf00e04f5000c6
:1009a0000200320000c2b300d2e8b700d2c8bf00d4
:1009b000f84f5000deff3200f700370000fa200049
:1009c000a04488000000eb00b0448800a0448000f0
:1009d00070448800b0448000804488000040eb00f0
:1009e000dee8b7000e003700190307000060fe00c4
:1009f0008bff0700e04f50000300320000cfb30030
:100a0000d2e8b700060037007144800080448000bf
:100a1000808f500002003a0040c2b300d2e8b70015
:100a2000218d20009140780000c2b30080cf50009b
:100a3000edff3200d80037000000eb007044880062
:100a400090448000804488000e0037000060fe0063
:100a5000ff02070072ff0700e04f50000300320062
:100a600000cfb300d2e8b700060037007144800021
:100a700080448000808f500002003a0000c3b30021
:100a8000d2e8b700218d20009140780040c2b30029
:100a900080cf5000edff3200bf003700001920006a
:100aa000b044880000c82000a04488000060fe0018
:100ab000e70207005aff0700e04f50000300320032
:100ac00000cfb300d2e8b700b3003700a016800013
:100ad00061006000e00f50000300320040c4b3002a
:100ae000d2e8b700ac00370000c5b300d2e8b700c9
:100af000a90037000040eb00dee8b70052003700e5
:100b00000060fe00d2020700cac8bf00e04f5000dc
:100b1000030032000040eb00cae8b7008e05070072
:100b20004016800070006000e00f500002003a00a4
:100b300010c0b300dfe8b700dfc8bf00e04f5000cf
:100b4000090032004016800070006000e00f500085
:100b5000050032000040eb00dfe8b7001100200084
:100b60000000eb00b60707004116800000022000dd
:100b700000806000e00f500002003a0010c0b30097
:100b8000e0e8b700e0c8bf00e04f50000a003200c4
:100b9000411680000002200000806000e00f50003d
:100ba000050032000040eb00e0e8b7001100200033
:100bb00010002000a207070041168000001020004e
:100bc00000806000e00f500002003a0010c0b30047
:100bd000e1e8b700e1c8bf00e04f50000800320074
:100be000411680000010200000806000e00f5000df
:100bf000030032000040eb00e1e8b7009601070077
:100c000007ff0700e04f50000300320000cfb300a1
:100c1000d2e8b7000c003700dec8bf00e04f50003c
:100c20000300320000c2b300d2e8b700060037006c
:100c3000a016800061006000e00f5000020032004a
:100c400000c3b300d2e8b700218d200091407800a6
:100c500000c5b30080cf5000a9ff32004e0037001e
:100c60000000eb00604688000040eb00cbe8b700d6
:100c70001b0037000060fe0075020700cac8bf00f5
:100c8000e04f5000040032000040eb00cae8b7001b
:100c9000310507003b050700e1fe0700e04f50006b
:100ca0000300320000cfb300d2e8b7000c003700d9
:100cb000a016800061006000e00f500003003a00c1
:100cc00000c3b300d2e8b7000500370070468000cb
:100cd000e90f50000200360000c4b300d2e8b700ac
:100ce000218d20009140780040c4b30080cf500097
:100cf000e0ff3200280037009144800070448000fb
:100d00000080500080468800150037000060fe001b
:100d10004f02070098050700c1fe0700e04f500092
:100d20000300320000cfb300d2e8b7000c00370058
:100d3000a016800061006000e00f500003003a0040
:100d400000c3b300d2e8b70005003700cac8bf002f
:100d5000e04f50000200320040c4b300d2e8b700b8
:100d6000218d20009140780000c4b30080cf500056
:100d7000e6ff3200080037000060fe003402070082
:100d80000100370000000000d2c8bf00f04f400053
:100d9000f9ff3200000000000080fa0000000600a9
:100da0000000fa00cb42a900c502a900f02f2f00d5
:100db00000168800f0bf2f00301688000080eb007e
:100dc000901688000080eb00c0168800f0ff23001a
:100dd000f01688008400a9009400a8008200a800f2
:100de000200580007000b3002005880084c0a900a1
:100df00094c0a80031058000f08f2f008080600033
:100e00000050200000807000300588008460a90038
:100e10009460a80021058000f0ff28008080600019
:100e20000000230000807000200588008640a90093
:100e30009640a80061058000f08f2f008080600040
:100e40000060200000807000600588009520a900e7
:100e500041058000f0f82f00808060000004200031
:100e600000807000400588009540a9004105800081
:100e7000f0f82f00808060000004200000807000e7
:100e80004005880070c62200100888000003280072
:100e900020088800c0112000600888000003280096
:100ea0008008880060802000200a070080842000dd
:100eb0001e0a070050002000401188000000eb00cf
:100ec000001188000040eb0004e8b7008540a9004d
:100ed0008520a9009540a8009520a80021e2a8003f
:100ee00000402000101188000000eb00301888003e
:100ef0005002200000188800005f2f0010188800a2
:100f000010102000501888000000eb0060188800c6
:100f1000101020007018880001e3a80000ccb30076
:100f2000d4e8b7000040eb00d5e8b7000000eb00c4
:100f3000b04688000000eb00c0468800408d2000cd
:100f40005d0a070000cab300dae8b7000040eb0012
:100f5000dbe8b70021002000a08d200083090700f6
:100f600000407800c7e8b7000080fa0000000600e3
:100f700000a0fe003600f800849fbe00869fbe00e1
:100f80000400fa00cb42a8000000000000000000ae
:100f90000000000000000000000000000000000051
:100fa0000000000000000000000000000000000041
:100fb00000000000cb42a900802520000100200095
:100fc000a30a0700111680000020200000806000a6
:100fd000e00f500078003a000000eb001007980086
:100fe0000000eb00904588000000eb00a045880061
:100ff0000603a9000aa3a800120037001e009000f3
:101000000000e80010079800000000003018800081
:1010100061006000e00f5000fcff3200914580004d
:10102000001980000080400090458800a1458000a4
:101030001019800000804000a04588000603a90028
:101040000aa3a8001e009000ed0f5000ebff360031
:10105000000000003018800061006000e00f5000c8
:10106000fcff3200914580000019800000804000a4
:1010700090458800a1458000101980000080400044
:10108000a0458800904580004400de00904588001f
:10109000a04580004400de00a04588009145800006
:1010a000a045800000805000000f7800c7c8bf0036
:1010b0000000fb001e0f4000f00720009e0078009b
:1010c000808f500003003400f0072000000f7800ec
:1010d0000600370000f82f009e007800808f500037
:1010e00002003d0000f82f00000f780090458000be
:1010f000f40f500005003e00a0458000f40f5000a2
:1011000002003e000000eb00000f780081448000e8
:1011100070448000808f5000020032000040eb00dd
:10112000c8e8b700c8c8bf000040e800c8e8b7007a
:10113000c8c8bf00ee4f500002003600f0c0b30038
:10114000c8e8b700c9c8bf000081fb001e007800d6
:1011500000407800618b20008100410090409800a1
:10116000c9c8bf000040e800c9e8b700c9c8bf004f
:101170006f406000c9e8b700604680000000e800ea
:10118000604688006146800000f02f00808f50008c
:101190000200360000f02f00604688000000eb00df
:1011a00070468800104780000000e8001047880063
:1011b00010c0b300cae8b7008400a9000080fa009c
:1011c0004f03be004f02be003600f9000080fe0053
:1011d000004006000000fa00f144800090992100d0
:1011e000808f500002003e000040eb0018003700e6
:1011f000f1448000c0cc2400808f500002003e00eb
:1012000010c0b30012003700f0448000e00f50001f
:101210000200350020c0b3000d003700f14480000b
:1012200020332b00808f500002003e0030c0b300fe
:1012300007003700f144800050662e00808f500078
:1012400002003e0040c0b3000100370050c0b300b0
:101250000080fa00000006000400fa00ddff07002d
:10126000004f78009e4078000180fb00cf80de00b8
:101270005200200003002000820f5000838f58008e
:1012800045003e00006001000500370009003700fe
:10129000180037003d0037003c00370035003700ac
:1012a000004580004600de004200dd0080448800ea
:1012b00039003700004580004600de004200dd00b6
:1012c00090448800b144800090448000808f50009a
:1012d0000200360000962000904488009044800070
:1012e0000001780011002000a08d200050080700a8
:1012f00029003700004580004800de0010079800f4
:101300009e009000f0072000808f500006003600fd
:101310001e0090008040780000c8b30000c040006c
:10132000c7e8b7000c003700010820001e0090003d
:1013300000805000100798000040eb00c7e8b7009d
:10134000c7c8bf00804078001e00900000407800b1
:1013500000c05000c7e8b700c7c8bf000000fb00ce
:101360000001780021002000a08d20003008070037
:101370000900370000458000e00f500005003d00e7
:1013800010c0b300dee8b700030037000000000023
:1013900001003700000000000080fa000000060095
:1013a0000200fa008bff0700004f78009e40780093
:1013b0000180fb00cf80de005200200003002000ef
:1013c000820f5000838f58003e003e0000600100f5
:1013d00005003700090037000d00370022003700f4
:1013e0002500370027003700704480004200dd00f0
:1013f0004200de00b0468800320037009044800092
:101400004200dd004200de00b04688002d003700bb
:10141000c7c8bf00e04f50000b003500c7c8bf0071
:101420000000fb00b0468800c7c8bf000000fb00fa
:101430000008b000b0468800b04680004400dd00df
:10144000b04688001f003700c7c8bf000000fb007f
:101450000008b000b0468800b04680004400dd00bf
:10146000b046880017003700e04680004200dd00eb
:10147000b0468800130037000000eb00b04688003b
:1014800010003700218d20009140780000c2b30089
:1014900080cf500005003200218d2000914078005f
:1014a00040c2b30080cf500003003a00f0ff20009c
:1014b000b0468800030037000000eb00b04688000b
:1014c00000000000408d20000b0907000080fa009a
:1014d000000006000200fa0007e2a900e442a900a9
:1014e0000040eb00004f780008003700e842a800f9
:1014f000400620000100200055090700e842a9002d
:1015000040062000010020005109070010c0b30070
:101510009e407800f4cf5000010036000040eb0000
:101520001e4fe800e04f5000f0ff3a00e442a800f0
:1015300007e2a8000080fa00000006003600f8006c
:10154000809fbe00829fbe00849fbe00869fbe001b
:101550000000fa008460a90091ff0700411080009c
:101560000040200000806000e00f500002003200c8
:10157000d8ff07000942a900e4c8bf000040e80006
:10158000e4e8b700418e20009140780070c2b300bb
:1015900080cf500012003600101780000080ea0053
:1015a0004f00de00004078000080fb004f00dd00af
:1015b00012178000f1ff2700810061000080700099
:1015c000101788000040eb00e4e8b70010478000e7
:1015d0004200de00e04688000000eb001047880073
:1015e000704680000000e800704688007146800068
:1015f000f0ef2f00808f50000200360000f02f0027
:10160000704688000080fa004f03be004f02be0003
:101610004f01be004f00be003600f900004006003a
:101620000000fa0000000000000000000000fe00c2
:101630000080fa00004006000000fa0000000000f0
:10164000000000000000fe000080fa0000400600dc
:101650000000fa0004c8bf00e24f50000100320051
:101660000600070004c8bf00e24f500001003a0026
:10167000d10007000080fa00000006000400fa0014
:10168000881f78002f003700608020005608070070
:10169000004f78001e407800ef4f400029003a00cc
:1016a0006080200050080700004f78001e4078003e
:1016b000ee4f400023003a00608020004a080700f7
:1016c000004f78001e407800ed4f40001d003a00aa
:1016d000608020004408070000e8b7006080200018
:1016e0004108070002e8b700608020003e080700bc
:1016f00003e8b700608020003b08070001e8b7005e
:1017000060802000380807000080fb001007980068
:101710001e0090004804dd006080200032080700b1
:101720000080fb0000004400100798001e0090009d
:1017300034020700e04f50000200320020c0b30026
:1017400004e8b70004c8bf00e04f500004003a00ae
:101750006080200041080700e84f5000caff3e00ab
:101760004f0478000080fa00000006000200fa0032
:101770008cc8bf00e04f50004d003200e1cfb300f5
:1017800080842000f3070700704480004800de00da
:10179000004078008040780080842000ed0707003a
:1017a00070448000004078008040780080842000f1
:1017b000e8070700804480004800de000040780011
:1017c0008040780080842000e20707008044800089
:1017d000004078008040780080842000dd0707000a
:1017e00091458000f00f2000808f500003003600ec
:1017f00000c0eb00004f78000200370090458000e9
:10180000004f78009e40780080842000d1070700b8
:10181000a1458000f00f2000808f500003003600ab
:1018200000c0eb00004f780002003700a0458000a8
:10183000004f78009e40780080842000c507070094
:10184000b6c8bf008040780080842000c107070030
:10185000604680004800de0000407800804078004c
:1018600080842000bb0707006046800000407800ad
:101870008040780080842000b607070011118000a6
:101880000020200000806000e00f500008003a00b7
:1018900080842000fb070700e04f50000400320066
:1018a00080842000d00707000080fb002011880002
:1018b0000080fa00000006000600fa0020479800a9
:1018c00031479800220798008cc8bf00e04f5000b5
:1018d00037003a002e019000be4090002e4090004c
:1018e000b2010700000f780011cfb3008084200000
:1018f0009807070021cfb3008084200095070700d8
:1019000041cfb3008084200092070700ae409000d2
:10191000808420008f0707002e0090004800de0022
:10192000004078008040780080842000890707000c
:101930002e009000004078008040780080842000d5
:1019400084070700be4090008084200081070700c4
:101950001e0078004800de000040780080407800db
:10196000808420007b0707001e007800004078007c
:1019700080407800808420007607070011118000e5
:101980000020200000806000e00f500008003a00b6
:1019900080842000bb070700e04f500004003200a5
:1019a00080842000900707000080fb002011880041
:1019b0000080fa00000006000600fa0002c8bf001e
:1019c0000080fb00000f78001e0078004800dd005a
:1019d000000f780003c8bf000080fb001e0f40000e
:1019e0001e0078001007980000c8bf000080fb00b0
:1019f0002007980000c8bf000080fb0021042000e1
:101a0000810f5000ac00320021042000810f5000f3
:101a100017003c0021032000810f500041003200dc
:101a200021032000810f500007003c00010220002c
:101a3000810f50002800320001032000810f500068
:101a40002a003200a900370061032000810f5000f6
:101a50008000320001042000810f50004600320057
:101a600041032000810f5000370032009f003700f3
:101a700001062000810f50005d00320001062000a9
:101a8000810f50000a003c0041052000810f5000ea
:101a90004900320061052000810f500075003200be
:101aa00001052000810f50003a0032008f003700fe
:101ab00021072000810f500077003200010e200026
:101ac000810f50007e00320001072000810f50007e
:101ad000260032008500370001c8bf000080fb00ef
:101ae0008c0007001007980080003700218d20002f
:101af0009140780040c4b30080cf500072003200a3
:101b0000218d20009140780000c4b30080cf5000a8
:101b10006f0032009e00780020002000c8030700fc
:101b200072003700218d20009140780000c5b3007d
:101b300080cf500068003a009e007800100020001e
:101b4000bf03070069003700218d20009140780015
:101b500000c5b30080cf500061003a009e007800bd
:101b60000000eb00b60307006000370010c0b300b0
:101b7000dee8b7005d00370001c8bf000080fb0051
:101b800080007800a08d20007806070010079800dc
:101b90005600370001c8bf000080fb00e400400091
:101ba000208b200000804000104090000000fb00cf
:101bb000100798004d003700e09f20009e0078003d
:101bc000808f500002003600f09f2000000f780048
:101bd000e0ff2f001e0f60001e00780050448800b8
:101be0005044800090007800110798003f003700b3
:101bf00001c8bf00e04f500004003a001e0078000a
:101c000000407800c7e8b7000b00370001c8bf00ec
:101c1000e14f500008003a000040eb00c7e8b70071
:101c2000c7c8bf00804078001e00780000407800e0
:101c300000c05000c7e8b700c7c8bf000000fb00e5
:101c40000001780021002000a08d2000f805070089
:101c5000260037001e0078009044880090448000e1
:101c60000001780011002000a08d2000f005070081
:101c70001e00370001c8bf00e14f500003003a00ca
:101c800010c0b3008ce8b700180037000040eb002c
:101c90008ce8b70015003700218d200091407800b6
:101ca00000c4b30080cf50000f003a0000f02f00b6
:101cb000704688000d003700000000000b00370060
:101cc0000000000009003700000000000700370096
:101cd000000000000500370000000000030037008e
:101ce000000000000100370000000000118020000b
:101cf000914078002e009000004078001e01900076
:101d0000edfe07000040eb0004e8b7000080fa0099
:101d1000000006000400fa00100798001e00900062
:101d20006101b8000080eb008080eb000200400001
:101d300083804800f204200003002000820f50003e
:101d4000838f580096003e00006001004f0037006e
:101d500052003700920037009100370090003700a2
:101d60008f0037008e0037008d0037008c00370061
:101d70008b0037008a003700890037008800370061
:101d8000870037008600370047003700840037009f
:101d900048003700820037004900370080003700d4
:101da0004a0037007e0037004b0037007c003700c8
:101db0007b0037007a003700790037007800370061
:101dc0007700370076003700750037007400370061
:101dd0007300370072003700710037007000370061
:101de0006f0037006e0037006d0037006c00370061
:101df0006b0037006a003700690037006800370061
:101e000067003700660037003600370038003700bb
:101e10003a0037003c0037006100370060003700af
:101e20005f0037005e0037005d0037005c00370060
:101e30005b003700370037004d0037004f00370098
:101e4000570037005600370035003700370037009d
:101e5000390037003c0037003f0037004a003700a8
:101e60004c0037004e0037004d0037004c00370063
:101e70004b0037004a003700490037004800370060
:101e8000470037004600370036003700d2c8bf0091
:101e90000080fb00000f7800410037002002200086
:101ea000000f78003e00370070448000000f78007b
:101eb0003b00370080448000000f78003800370076
:101ec00090448000000f780035003700a044800067
:101ed000000f780032003700b0448000000f780017
:101ee0002f00370000198000000f78002c00370009
:101ef00010198000000f780029003700d0448000be
:101f0000000f780026003700e0448000000f7800c2
:101f100023003700f0448000000f780020003700d5
:101f200090458000000f78001d003700a04580001c
:101f3000000f78001a003700b6c8bf000000fb0091
:101f4000000f780016003700c7c8bf000000fb0074
:101f5000000f78001200370060468000000f780004
:101f60000f003700e0468000000f78000c003700bb
:101f700000458000000f780009003700b04680005f
:101f8000000f78000600370070468000000f7800d0
:101f90000300370080468000000f7800000000003a
:101fa0001e0078000080fa00000006000600fa001b
:101fb000204798003147980022079800702d200094
:101fc000000f78002e4090008080fb003e40900083
:101fd0000080fb00008040001e0f40002e0090009b
:101fe0004800de001e0f4000ae009000f00f200001
:101ff000008060001e0f40001e0078000080fa0084
:10200000000006000400fa0010079800602d200070
:10201000000f780000c8bf008080fb0001c8bf002f
:102020000080fb00008040001e0f400002c8bf007f
:102030008080fb0003c8bf000080fb0000804000e0
:102040001e0f40001e0090009e007800808f500000
:1020500002003a0010c0b300010037000040eb005e
:102060000080fa00000006003600f800809fbe00e5
:10207000829fbe00849fbe00869fbe004400f80081
:102080004200f8000000fa008520a9000500370092
:10209000301180000040780080407800608020008f
:1020a000ac0507001011800061006000e00f5000d7
:1020b000f7ff3a000080fa004200f9004400f900fe
:1020c0004f03be004f02be004f01be004f00be00d6
:1020d0003600f900004006003600f800809fbe0080
:1020e000829fbe00849fbe00869fbe004400f80011
:1020f0004200f8000000fa008540a9000400370003
:1021000080842000b80507000080fb0020118800b3
:10211000111180000020200000806000e00f5000be
:1021200004003a0080842000cc050700e04f5000f6
:10213000f3ff3a000080fa004200f9004400f90081
:102140004f03be004f02be004f01be004f00be0055
:102150003600f900004006000000fa00cbc8bf00be
:10216000e04f500003003a0090010700b6e8b700c6
:102170000200370015010700b6e8b7000080fa003a
:10218000000006000200fa0070448000000f780092
:1021900061468000f0072000808f5000020036006a
:1021a00010c0b300cbe8b700cbc8bf00e04f500071
:1021b00051003a00b6c8bf00e54f5000030034009c
:1021c0001e007800700f400047003700b6c8bf00ff
:1021d000e44f5000030034001e0078006c0f4000f4
:1021e00041003700b6c8bf00e34f50000300340081
:1021f0001e007800680f40003b003700b6c8bf00e3
:10220000e14f5000030034001e007800640f4000ce
:1022100035003700b6c8bf00e04f5000060035005b
:1022200060468000e30f50002f00360010c0b3005e
:10223000cbe8b7002c003700b6c8bf00e24f400023
:10224000090035001e007800e00f50000300320046
:102250001e007800640f5000230037000000eb00e0
:10226000000f780020003700b6c8bf00e34f4000e1
:10227000090035001e007800e10f50000300360011
:102280001e007800680f5000170037000000eb00b8
:10229000000f780014003700b6c8bf00e44f4000bc
:1022a000090035001e007800e20f500003003600e0
:1022b0001e0078006c0f50000b0037000000eb0090
:1022c000000f7800080037001e007800e30f500070
:1022d000030036001e007800700f50000200370027
:1022e0000000eb00000f78009e0078002000200026
:1022f000d30107001d00370010c0b300cbe8b700c2
:102300007144800080448000808f500017003a00a4
:1023100070448000000f7800b6c8bf00e14f500045
:10232000080034001e007800e10f40000f0032006a
:102330001e0fe8009e00780020002000c00107006a
:102340000a003700b6c8bf00e14f400007003d005b
:102350001e007800e00f5000040032001e0fe9005c
:102360009e00780020002000b5010700fffc070058
:102370000080fa00000006000a00fa0070468000a3
:1023800030079800f11e84003e009000808f5000be
:1023900004003e006000b800100798002107980074
:1023a000820037000040eb00004f7800010037004a
:1023b0001e4fe8001e407800f54f500009003e0017
:1023c0009e4078000180fb0080004000003b280018
:1023d00000804000900078003e009000808f500008
:1023e000f3ff36001e4178000280fb0078004000b9
:1023f00080004000003b28000080400090007800f2
:102400001e4178000280fb000000e80078004000d8
:1024100000014000003b280000004100100078004f
:10242000008050000100200010079800210798004c
:102430009e4078000180fb000000e8008000400022
:10244000003b280000804000900078003e00900093
:1024500000805000010020002e0190000091b90082
:10246000020178009e019000019ab9008401780071
:10247000030141009e0190000018b80001014100d5
:102480008200780010079800210798001007980034
:10249000210798001e4178000280fb000000e80040
:1024a00080004000003b2800008040009000780041
:1024b0001e4178000280fb0000014000003b280024
:1024c0000000410010007800008050000100200052
:1024d0000001be001e009000ae00900090f70700c3
:1024e00010079800210798009e4078000180fb00ab
:1024f0000000e8007800400080004000003b280019
:102500000080400010007800010020001e019000b3
:10251000ae01900002004000838048001007980040
:102520002107980080468000cf80de002e019000b9
:102530000091b900020178009e019000019ab90053
:1025400084017800030141009e0190000018b8004a
:1025500001014100820078001007980021079800cf
:1025600010079800210798001e019000420798006c
:102570001e009000ae0090004008de000100200028
:1025800010079800210798004e009000e00f5000bf
:1025900006003d001e009000ae009000610040006b
:1025a000e0804800100798002107980091448000bf
:1025b0001e00900000805000800078002000200065
:1025c0001f0107000080fa00000006000400fa0066
:1025d00060468000e70f500003003600c8c8bf0007
:1025e000e74f500002003e000040eb006d00370056
:1025f000c9c8bf00004f78001e4fe9001e40780098
:102600006f4f60009e4078000180fb00e4004000b6
:10261000208b200000804000104090000000fb0054
:10262000100798001e4fe9001e4078006f4f6000b1
:102630009e4078000180fb00e4004000208b2000d9
:1026400000804000104090000000fb009e009000c1
:1026500000804000100798001e4fe9001e407800df
:102660006f4f60009e4078000180fb00e400400056
:10267000208b200000804000104090000000fb00f4
:102680009e00900000804000100798001e4fe90057
:102690001e4078006f4f60009e4078000180fb0074
:1026a000e4004000208b200000804000104090009b
:1026b0000000fb009e009000008040001007980082
:1026c0001e4fe9001e4078006f4f60009e4078006a
:1026d0000180fb00e4004000208b200000804000cf
:1026e000104090000000fb009e0090000080400021
:1026f000100798001e4fe9001e4078006f4f6000e1
:102700009e4078000180fb00e4004000208b200008
:1027100000804000104090000000fb009e009000f0
:1027200000804000100798001e4fe9001e4078000e
:102730006f4f60009e4078000180fb00e400400085
:10274000208b200000804000104090000000fb0023
:102750009e00900000804000100798001e4fe90086
:102760001e4078006f4f60009e4078000180fb00a3
:10277000e4004000208b20000080400010409000ca
:102780000000fb009e0090000080400010079800b1
:102790001e0090004380de00100798001e0090008d
:1027a000004078000080fa00000006000400fa00f3
:1027b00060468000e10f500002003e000040eb0048
:1027c0001f003700c9c8bf00004f78001e4fe90046
:1027d0001e4078006f4f60009e4078000180fb0033
:1027e000e4004000208b200000804000104090005a
:1027f0000000fb00100798001e4fe9001e40780003
:102800006f4f60009e4078000180fb00e4004000b4
:10281000208b200000804000104090000000fb0052
:102820009e00900000804000100798001e0090005d
:102830000080d100100798001e0090000040780032
:102840000080fa00000006000000fa000040eb00e3
:10285000b7e8b7000040eb00b8e8b7000040eb0075
:10286000b9e8b7000040eb00bae8b7000040eb0061
:10287000bbe8b7000040eb00bce8b7000040eb004d
:10288000bde8b7000040eb00bee8b7000040eb0039
:10289000bfe8b7000040eb00c0e8b7000040eb0025
:1028a000c1e8b7000040eb00c2e8b7000040eb0011
:1028b000c3e8b7000040eb00c4e8b7000040eb00fd
:1028c000c5e8b7000040eb00c6e8b7000080fa009a
:1028d000000006000000fa0000c82000a0448800a4
:1028e00000192000b044880011002000a08d2000b5
:1028f0001e0307009044880091448000a04480009b
:10290000808f500002003900a0448000904488006d
:1029100091448000b0448000808f500002003e004f
:10292000b044800090448800904480008044880037
:1029300090448000704488000000eb00104588003f
:102940000040eb00a9e8b7000000eb00504588000c
:102950000000eb00604588000000eb007045880037
:1029600000af25001020880000002c0050208800b7
:102970001000200040208800501720009020880080
:1029800050172000a020880080d7220070208800e7
:102990000000eb008020880000002c00f020880060
:1029a00010002000e020880050172000302188000f
:1029b000501720004021880080d722001021880075
:1029c0000000eb002021880000002c0090218800ee
:1029d000100020008021880050172000d02188009e
:1029e00050172000e021880080d72200b021880005
:1029f0000000eb00c021880000002c00302288007d
:102a0000100020002022880050172000702288002b
:102a1000501720008022880080d722005022880092
:102a20000000eb0060228800a00020003020880019
:102a30000164a80001e4a8000080fa00000006007c
:102a40000800fa00200798003107980080448000b1
:102a5000100798002e009000e20f500003003a008b
:102a60003e009000000f78001c0037002e00900000
:102a7000e10f50000c003a003e0090008080ea0018
:102a80001e009000808f5000040036009e009000d1
:102a90003e009000008f4000100037000080eb00e7
:102aa000000f78000d0037002e009000e00f50005e
:102ab0000a003a009e0090003e009000808f500077
:102ac000040039009e0090003e009000008f5000ee
:102ad000020037000000eb00000f7800a0448000e7
:102ae0009e0f500002003e00a0448000000f7800be
:102af000b04480009e0f500002003900b0448000b6
:102b0000000f78001e007800804488000080fa00e2
:102b100000000600809fbe003400f8000000200086
:102b2000a00188004400f8004200f8000800fa0004
:102b30008640a900a9c8bf000040e800a9e8b70086
:102b4000918a200091407800f0c3b30080cf5000fc
:102b5000120036000040eb00a9e8b70050458000a5
:102b6000f044880080458000004588006045800072
:102b7000d044880070458000e04488000000eb00ed
:102b8000504588000000eb00604588000000eb0025
:102b9000704588000000eb00804588000ba3a90069
:102ba0000fa3a9000ea3a900814580009019800001
:102bb000008040008045880051458000b0198000a9
:102bc0000080400050458800614580002019800049
:102bd0000080400060458800714580003019800009
:102be00000804000704588000ba3a8000fa3a80038
:102bf0000ea3a80098c8bf00e24f50007400320036
:102c00000040eb00c8e8b7000000eb00304588004a
:102c1000a8c8bf000040e800a8e8b700218d200048
:102c20009140780040c4b30080cf500008003a00c3
:102c3000cbc8bf00e04f500005003200400220002a
:102c4000000f78000047200060088800040037006b
:102c500060002000000f7800c0112000600888008c
:102c6000a8c8bf000080fb009e0f500092003900f2
:102c70000040eb00a8e8b70098c8bf00e14f500043
:102c800004003a00104580000000e900104588006b
:102c900003003700104580000000e8001045880060
:102ca00011458000f007200000806000104588007a
:102cb000104580000002b000100798009e009000b0
:102cc000f007200000806000100798001045800089
:102cd0000004b00020079800ae009000f00720002c
:102ce0000080600020079800104580000006b000ba
:102cf00030079800be009000f007200000806000c0
:102d0000300798001045800080004000001b28001c
:102d10000080400010007800702088002e00900095
:102d200080004000001b2800008040001000780058
:102d3000102188001e00900080004000001b280029
:102d40000080400010007800b02188003e00900014
:102d500080004000001b2800008040001000780028
:102d600050228800204580000000e80020458800af
:102d700020458000e70f50004f0036000000eb00b8
:102d80002045880098c8bf00e14f500007003a0076
:102d900070448000e10f40000a003200704480005f
:102da0000000e8007044880006003700704480008e
:102db000e00f500003003200704480000000e90082
:102dc0007044880020c0b30098e8b7003a0037008c
:102dd000304580000000e800304588003145800023
:102de000f0f92000808f50003300360000fa2000f8
:102df0003045880011458000f00720000080600009
:102e000010458800104580000002b00010079800af
:102e10009e009000f00720000080600010079800de
:102e2000104580000004b00020079800ae0090001c
:102e3000f007200000806000200798001045800007
:102e40000006b00030079800be009000f007200098
:102e5000008060003007980010458000800040002e
:102e6000002b2800008040001000780070208800af
:102e70002e00900080004000002b280000804000c1
:102e800010007800102188001e0090008000400093
:102e9000002b28000080400010007800b02188003e
:102ea0003e00900080004000002b28000080400081
:102eb00010007800502288000080fa004200f900db
:102ec0004400f9003400f9004f00be000040060045
:102ed000809fbe000000fa0084c0a90098c8bf000f
:102ee000e24f500019003a0081448000a044800065
:102ef000808f500002003600a0448000804488008b
:102f000081448000b0448000808f50000200310076
:102f1000b044800080448800714480008044800078
:102f2000808f5000030036000040eb0098e8b700a7
:102f3000060037007144800080448000808f50007c
:102f40000200310010c0b30098e8b7000080fa001a
:102f50004f00be00004006001400fa0040479800f1
:102f600031079800420798005307980064079800bb
:102f700075079800060f9800170f98006e019000d3
:102f8000fe0190004318dd00cd10de0081007000ce
:102f90004310dd004e019000de019000e0f40700d8
:102fa000008fbe001e007800404788004047800028
:102fb0000000d100404788000e0990009e09900053
:102fc0004318dd00cd10de00810070004310dd00ed
:102fd0001e1f10001e9718001e00be004d09dd00c8
:102fe0004300de0000007100c308de00008fbe0059
:102ff0000080eb008080eb001e0f40005e974800d1
:103000001e01be001000200001002000800f5100b2
:10301000818f590003003e002000200001002000a5
:10302000008fbe00f0ff2f00010020001e01be0037
:10303000800f5100818f59000300360020002000ce
:1030400001002000008fbe004e409000e04f500075
:10305000030032004e409000e14f500004003a005f
:10306000be009000311088001e00780020108800fb
:103070000080fa00000006000600fa0040479800b1
:103080000000eb00100798004e409000e04f500009
:10309000030032004e409000e14f500013003a0010
:1030a0000000eb00000f78000b0037001e0fe80057
:1030b000404780009e007800808f50000600360058
:1030c00000a02f0010079800304780000000e800a3
:1030d00030478800050037004110800000002400c0
:1030e00000806000e00f5000f0ff3a001e009000ea
:1030f0000080fa00000006000600fa004047980031
:103100000000eb00100798004e409000e04f500088
:10311000030032004e409000e14f500013003a008f
:103120000602a8000000eb00000f78000b0037003b
:103130001e0fe800404780009e007800808f5000fe
:103140000600360000a02f001007980030478000ce
:103150000000e8003047880004003700301080008d
:1031600061006000e00f5000f1ff3a001e00900087
:103170000080fa00000006000600fa0040479800b0
:103180000000eb00100798004e409000e04f500008
:10319000030032004e409000e14f500013003a000f
:1031a0000622a8000000eb00000f78000b0037009b
:1031b0001e0fe800404780009e007800808f50007e
:1031c0000600360000a02f0010079800304780004e
:1031d0000000e8003047880004003700301080000d
:1031e00062006000e00f5000f1ff3a001e00900006
:1031f0000080fa00000006000600fa004047980030
:10320000514798000000eb00100798005e409000c6
:10321000e04f5000030032005e409000e14f50004c
:1032200028003a004e4090000080fb0010108800fb
:103230000000eb00000f78000c0037001e0fe800c4
:10324000404780009e007800808f500007003600c5
:1032500000a02f0010079800304780000000e80011
:103260003047880000000000110037004110800046
:103270000000240000806000e00f5000efff3200eb
:103280000b0037001e0fe800404780009e007800ca
:10329000808f50000600360000a02f001007980015
:1032a000304780000000e800304788000500370004
:1032b000411080000000240000806000e00f5000fa
:1032c000f0ff3a001e0090000080fa0000000600a7
:1032d0000600fa00404798000000eb001007980035
:1032e0004e409000e04f5000030032004e409000ee
:1032f000e14f50002b003a000662a8000000eb00ee
:10330000000f78000c0037001e0fe80040478000d7
:103310009e007800808f50000700360000a02f002c
:1033200010079800304780000000e8003047880010
:1033300000000000100037003010800068006000be
:10334000e00f5000f0ff3a000b0037001e0fe800be
:10335000404780009e007800808f500006003600b5
:1033600000a02f0010079800304780000000e80000
:103370003047880004003700401080006200600081
:10338000e00f5000f1ff32001e009000e00f5000ef
:1033900004003a0001108000f00f2000008060005f
:1033a000100798001e0090000080fa000000060040
:1033b0000600fa00404798000000eb001007980054
:1033c0004e409000e04f5000030032004e4090000d
:1033d000e14f500013003a000642a8000000eb0045
:1033e000000f78000b0037001e0fe80040478000f8
:1033f0009e007800808f50000600360000a02f004d
:1034000010079800304780000000e800304788002f
:10341000040037003010800064006000e00f5000ae
:10342000f1ff3a001e0090000080fa000000060044
:103430000e00fa00400798005107980062079800b4
:10344000de009000f0f32100808f500045003e0028
:103450006e0090004800de00004f78006e00900083
:10346000104798005e009000000040001007980090
:103470001e0090004800de00404798001e009000ab
:10348000504798004e00900010409000fafe070050
:10349000300798004e0090001040900016ff070083
:1034a000be00900000807000300798004e00900031
:1034b000904090004e009000104078004eff0700b2
:1034c000be00900000807000300798004e00900011
:1034d00010409000804078004e40900046ff07006a
:1034e000be00900000807000300798004e009000f1
:1034f00010409000804078005e4090003eff070042
:10350000be00900000807000300798004e009000d0
:1035100010409000804078001e40900036ff070069
:10352000be00900000807000300798004e009000b0
:1035300010409000804078001e4078002eff070069
:10354000be00900000807000300798004e00900090
:103550001040900096ff0700be00900000807000b1
:10356000300798000080fa00000006000c00fa0006
:103570004007980051079800de009000f0f321000a
:10358000808f500057003e005e0090000000400019
:10359000100798001e0090004800de004047980089
:1035a0001e009000504798004e0090001040900080
:1035b000b1fe0700300798004e00900010409000c8
:1035c000cdfe0700be00900000807000300798001c
:1035d0004e009000904090004e0090001040780007
:1035e00005ff0700be0090000080700030079800c3
:1035f0004e00900010409000804078004e409000b7
:10360000fdfe0700be0090000080700030079800ab
:103610004e00900010409000804078005e40900086
:10362000f5fe0700be009000008070003007980093
:103630004e00900010409000cffe0700be009000aa
:1036400000807000300798004e009000904090007d
:103650004e009000104078000004a000e6fe070035
:10366000be00900000807000300798004e0090006f
:103670001040900016ff0700004f78004e009000a9
:1036800010409000bcfe0700be009000008070005b
:10369000300798004e009000904090004e0090003f
:1036a000104078000004a000d3fe0700be00900088
:1036b00000807000300798004e009000104090008d
:1036c00003ff0700104798004e0090001040900044
:1036d00037ff0700be0090000080700030079800a0
:1036e000040037000040eb00004f78000040eb0082
:1036f000104798001e4090000080fb0010079800c3
:103700001e0090004800dd00100798009e407800e1
:103710000180fb009e009000008040001007980090
:103720001e0090000080fa00000006000200fa006f
:10373000000f78009e0078000040eb0080c09800e9
:103740009e0078000040eb0090c098000080fa00d6
:10375000000006000400fa00000f780021479800de
:103760001e00780000c090000080fb009e007800e2
:103770002e419000827078001e00780000c09000fa
:103780000040e8009e00780080c098001e0078008d
:1037900000c09000f043b2009e00780080c0980006
:1037a0001e00780080c090001e00780010c09000bd
:1037b00080cf50000a003a001e00780010c0900030
:1037c0000040e8009e00780090c098001e0078003d
:1037d00010c09000f043b2009e00780090c09800a6
:1037e0000080fa00000006000400fa0010079800ac
:1037f0001e00900090c09000114798001e0090009d
:1038000080c090001e40900080cf50000e0032001b
:103810001e4090000080fb009e009000614f7800e9
:103820001e4090000040e800104798001e409000a5
:10383000f043b200104798001e0090009e40900098
:1038400011c09800020037000040eb00004f7800e4
:103850001e4078000080fa00000006000200fa0016
:10386000000f78001e00780080c090001e007800d5
:1038700010c0900000c05000f043b2000080fa0079
:10388000000006000200fa00000f78001e00780019
:1038900080c090001e00780010c0900080cf5000c3
:1038a00002003a000040eb000100370010c0b300f6
:1038b0000080fa00000006000200fa00000f780005
:1038c0001e00780010409000a60120000700200094
:1038d000047e2000c51b2000026a2800130020007f
:1038e00001022b009cfd07001e007800020007006b
:1038f0000080fa00000006000600fa002007980089
:103900002e00900010009000004f78002e009000d4
:10391000100090004800de00104798002e00900034
:1039200010409000d4fd0700100798002e00900072
:1039300010409000f0fd07009e0090000080700095
:10394000100798002e009000904090002e009000ec
:103950001040780028fe07009e0090000080700054
:10396000100798002e0090001040900080407800d2
:103970001e40900020fe07009e0090000080700016
:10398000100798002e0090001040900080407800b2
:103990001e40780018fe07009e0090000080700016
:1039a000100798002e0090001040900080fe070045
:1039b0009e00900000807000100798001e0090008c
:1039c000e00f5000050032002e0090002000900013
:1039d0008000e8002e009000210098000080fa008e
:0439e00000000600dd
:020000040000fa
:1039e400d20800000a00000000000000dc0800000b
:1039f4000a000000020000000000000000000000b7
:103a04000000000000000000000800008e0000001c
:103a1400000000008e0800002400000000000000e8
:103a2400e6080000020000000200000000000000a0
:103a3400e80800000200000000000000b2080000d6
:0c3a440020000000000000000000000056
:020000040000fa
:103a5000f03fb1000180b10006003500ee0309001f
:103a600000000000403fb1000180b100fbff3d00bd
:103a70001000b000203fb0000200350000800900b7
:083a8000000000000000060038
:020000040000fa
:0200000401f009
:04000000ffff0000fe
:020000040000fa
:0200000401f009
:04000800ffff0000f6
:020000040000fa
:0200000401f009
:04000c00fdff0000f4
:020000040000fa
:0200000401f009
:040010007fff00006e
:020000040000fa
:0200000401f009
:04001400ebff0000fe
:020000040000fa
:0200000401f009
:04001800ffff0000e6
:020000040000fa
:0200000401f009
:04001c00ffff0000e2
:00000001FF
